:020000042000DA
:10000000004000204D020020550200205702002031
:10001000590200205B0200205D0200200000000069
:100020000000000000000000000000005F0200204F
:100030006102002000000000630200206502002031
:1000400067020020690200206B0200206D02002080
:100050006F02002071020020730200207502002050
:1000600077020020790200207B0200207D02002020
:100070007F020020810200208302002085020020F0
:1000800087020020890200208B0200208D020020C0
:100090008F02002091020020930200209502002090
:1000A00097020020990200209B0200209D02002060
:1000B0009F020020A1020020A3020020A502002030
:1000C000A7020020A9020020AB020020AD02002000
:1000D000AF020020B1020020B3020020B5020020D0
:1000E000B7020020B9020020BB020020BD020020A0
:1000F00000F002F800F03AF80AA090E8000C824400
:100100008344AAF10107DA4501D100F02FF8AFF2DC
:10011000090EBAE80F0013F0010F18BFFB1A43F0E5
:1001200001031847E00E0000000F0000103A24BF42
:1001300078C878C1FAD8520724BF30C830C144BF4C
:1001400004680C607047000000230024002500268E
:10015000103A28BF78C1FBD8520728BF30C148BF2A
:100160000B6070471FB51FBD10B510BDDFF80CD078
:10017000FFF7F8FF00F0D2F800F03DFF004000204C
:1001800003B4FFF7F1FF03BC00F055F840BA704725
:10019000C0BA704702B44FF0050100FB01F0A0F1B6
:1001A000040001380028FCD102BC704723490968CB
:1001B00001F0807199B12249096801F0010171B122
:1001C0001F498039096801F0010141B100BF4FF0BA
:1001D000604109680029FAD04FF060421070704702
:1001E00070B504460D462046FFF7E0FF204670BD7F
:1001F00010B5024600BF00BF4FF0FF31114B1B6826
:10020000114CA34204D00F4B196823460D4C2360B8
:10021000084600BF411C0029EDD010BD01464FF03B
:10022000FF30704701460020704710B50446204655
:10023000FFF7BCFF10BD00BFFEE70000FCED00E0D3
:10024000800E00E000200020A55AA55A1C488047D7
:100250001C480047FEE7FEE7FEE7FEE7FEE7FEE795
:10026000FEE7FEE7FEE7FEE7FEE7FEE7FEE7FEE766
:10027000FEE7FEE7FEE7FEE7FEE7FEE7FEE7FEE756
:10028000FEE7FEE7FEE7FEE7FEE7FEE7FEE7FEE746
:10029000FEE7FEE7FEE7FEE7FEE7FEE7FEE7FEE736
:1002A000FEE7FEE7FEE7FEE7FEE7FEE7FEE7FEE726
:1002B000FEE7FEE7FEE7FEE7FEE7FEE7FEE70000FB
:1002C000C9020020F10000201348006900F001007D
:1002D00000B311480069C0F34000D8B90E48006966
:1002E000C0F38000B0B94FF420004FF0E021486126
:1002F000002088610520086100BF4FF0E020006900
:1003000000F480300028F8D000204FF0E021086190
:10031000486188617047704700C0024000F0C7F82C
:1003200000F0D6F800F0A2FC00F02AF800F0B6FDCC
:1003300000F0C7F800F024F800BFFEE700BF8F48C8
:10034000006820F007008D49086000BF084600687B
:1003500020F4E060086000BF0846006820F48030A8
:10036000086000BF03204862704702208349486349
:1003700000BFA52082490863DD20086300BF7047E5
:1003800000BF80207F4908607F49C1F8A40200BFF8
:100390007C494039086000BF40007A4908607A49CA
:1003A000C1F8A40200BF77494039086000BF40008F
:1003B000744908607449C1F8A40200BF714940390A
:1003C0000860704700B502206C494862C0036E495E
:1003D000F83108606C49C1F898016A498C390860A5
:1003E00000BF4FF482706849E83108606649C1F87F
:1003F000A4006549C431086000BF00BF8020624985
:10040000E43108606049C1F8C40000BF40F2C73061
:100410005D49D0310860FF205B49C1F8700100BF21
:100420002F2058499C3908605749C1F8E4015549C3
:10043000C039086000BF00BFD0205249A039086011
:100440005149C1F8040200BF4FF6FF704D49B4395D
:10045000086000BF4FF46C704A4908604A49C1F80F
:10046000A40200BF4FF6FF70464914390860FFF739
:1004700087FF00BD4548006920F0600040304349D7
:10048000086170474FF440003C49486201204863CE
:10049000704700B5FFF7F6FF40203D4988604006F1
:1004A0003C49886040084860FFF7E4FF00BD00B5A4
:1004B000FFF744FFFFF759FFFFF784FFFFF7E9FF5E
:1004C00000BD01202D4948634020334948607047F2
:1004D00000BF80202B4908602B49C1F8A40200BF4F
:1004E00028493C39086000BF400026490860264979
:1004F000C1F8A40200BF23493C39086000BF400096
:10050000204908602049C1F8A40200BF1D493C39B8
:100510000860704700BF4FF400701A4908601A491C
:10052000C1F8A40200BF17493C390860704700BFFA
:100530004FF40070134908601349C1F8A40200BFCA
:10054000104940390860704700B514480068401CE5
:10055000124908600846007800F00F0068B910489A
:10056000007828B100200E490870FFF7E0FF04E092
:1005700001200B490870FFF7CDFF00BD00D00240FD
:1005800000000340C4A2024000A0024000800440DA
:1005900000D0044000E0044000C0024010200020D1
:1005A0000C20002010B5024600204FF0402100BF73
:1005B0004FF47F438B658B154B6500BF00BF4FF039
:1005C000E0638B658B024B6500BFCB034B620B0472
:1005D0004B6200BF4B154B624FF440438B6200BF30
:1005E00004238B654023FE4C23600A7000BF0B6917
:1005F000C3F3C013002BFAD000BF0B69C3F303434E
:10060000012BFADB4FF000534B624023F44C241FC4
:10061000236010BD30B502460B4600204FF040214C
:1006200004248C6500BF4C154C624FF440448C622E
:1006300000BF00BF4FF0E0648C658C024C6500BFCA
:10064000CC034C620C044C624024E54D2C600A70D3
:1006500000BF0C69C4F3C014002CFAD000BF0C69B1
:10066000C4F30344012CFADB4FF000544C62002425
:100670000C7000BF0C69C4F3C014002CFAD000BF8A
:100680000C69C4F30344012CFADB0C781C70402481
:10069000D34D2D1F2C6030BDF0B503460C46002015
:1006A00000254FF0402104268E6500BF4E154E6296
:1006B0004FF440468E6200BF00BF4FF0E0668E658B
:1006C0008E024E6500BFCE034E620E044E6240267F
:1006D000C34F3E600B7000BF0E69C6F3C016002EFC
:1006E000FAD000BF0E69C6F30346012EFADB17E00D
:1006F0004FF000564E6200260E7000BF0E69C6F322
:10070000C016002EFAD000BF0E69C6F30346012EB4
:10071000FADB91F800C02E466F1CBDB204F806C08B
:100720001600A2F10107BAB2E2D14026AC4F3F1F3A
:100730003E60F0BDF0B503460C46002000254FF0AA
:10074000402104268E6500BF4E154E624FF4404690
:100750008E6200BF00BF4FF0E0668E658E024E6570
:1007600000BFCE034E620E044E6240269C4F3E6098
:100770000B7000BF0E69C6F3C016002EFAD000BF82
:100780000E69C6F30346012EFADB4FF000564E62A7
:1007900012E0665D0E7000BF0E69C6F3C016002E33
:1007A000FAD000BF0E69C6F30346012EFADB4FF004
:1007B00000564E626E1CB5B21600A2F10107BAB225
:1007C000E7D14026864F3F1F3E60F0BDF0B504469E
:1007D0000D4600204FF0402104268E6500BF4E15C7
:1007E0004E624FF440468E6200BF00BF4FF0E0669D
:1007F0008E650E034E6500BF0E044E624026784F94
:100800003E6013E04FF000564E6226680E6000BF57
:100810000E69C6F3C016002EFAD000BF0E69C6F3EB
:100820000346042EFADB2E1FB5B2241D042DE9DA8F
:1008300000BF4FF0E0668E654FF080764E6500BFDA
:1008400011E04FF000564E6226780E6000BF0E6930
:10085000C6F3C016002EFAD000BF0E69C6F30346D9
:10086000012EFADB641C2E00A5F10107BDB2E8D110
:1008700000BF4FF0E0668E654FF080664E6500BFAA
:1008800015E04FF000564E6200260E6000BF0E6964
:10089000C6F3C016002EFAD000BF0E69C6F3034699
:1008A000042EFADB0E681660121D1E1FB3B2042B55
:1008B000E7DA00BF4FF0E0668E654FF080764E6558
:1008C00000BF13E04FF000564E6200260E7000BFCE
:1008D0000E69C6F3C016002EFAD000BF0E69C6F32B
:1008E0000346012EFADB0E7802F8016B1E00A3F11D
:1008F0000107BBB2E6D14026394F3F1F3E60F0BD35
:10090000F0B504460D4600204FF0402104268E65C8
:1009100000BF4E154E624FF440468E6200BF00BFCE
:100920004FF0E0668E650E034E6500BFCE034E624B
:100930000E044E6240262A4F3E6013E04FF00056F0
:100940004E6226680E6000BF0E69C6F3C016002E08
:10095000FAD000BF0E69C6F30346042EFADB2E1F41
:10096000B5B2241D042DE9DA00BF4FF0E0668E65B4
:100970004FF080764E6500BF11E04FF000564E629A
:1009800026780E7000BF0E69C6F3C016002EFAD08E
:1009900000BF0E69C6F30346012EFADB641C2E006D
:1009A000A5F10107BDB2E8D100BF4FF0E0668E654A
:1009B0004FF080664E6500BF16E04FF000564E6265
:1009C00016680E6000BF0E69C6F3C016002EFAD07E
:1009D00000BF0E69C6F30346042EFADB121D01E0C8
:1009E00088A202401E1FB3B2042BE6DA00BF4FF00C
:1009F000E0668E654FF080764E6500BF11E04FF0E7
:100A000000564E6216780E7000BF0E69C6F3C0160F
:100A1000002EFAD000BF0E69C6F30346012EFADBA2
:100A2000521C1E00A3F10107BBB2E8D14026014FC2
:100A30003E60F0BD84A2024010B54FF0402000217E
:100A4000102200BF4023444C2360444CC4F8A4321D
:100A500000BF414C403C23600223414C636242F0A2
:100A60000103636240233D4C6362430463620423D9
:100A7000836500BF431543624FF44043836200BF68
:100A800000BF4FF47F4383650023436500BF036AC3
:100A900023F4700303F5E00303620163031583622B
:100AA000C314836243148362C30343620304436237
:100AB00000BF40F2FF33836100BF032383658315CA
:100AC000436210BD00BF4FF400702449E431086058
:100AD0002249C1F8C40000BF2049A431086000BF0A
:100AE00040201D4908601D49C1F8A40200BF1A49F1
:100AF0004039086000BF08201849E43108601749F0
:100B0000C1F8C40000BF00BF10201449E8310860DC
:100B10001249C1F8A4001149C431086000BF00BFE8
:100B200020200E49E43108600C49C1F8C40000BF20
:100B3000704710B54FF400700849A83108600C20C8
:100B4000FFF728FB4FF400700449C1F8A4000C2003
:100B5000FFF720FB10BD0000C4A2024000A002402D
:100B600000D002402DE9FC4104460D4616461F46C2
:100B7000D2208DF80000C4F3C7108DF8010060008A
:100B800040EA2520C0B28DF80200E8B28DF80300DB
:100B900000208DF804008DF805008DF806008DF812
:100BA00007003B46324608216846FFF70FFE00204B
:100BB000BDE8FC8108B502226946D720FFF76CFD2D
:100BC000BDF8000008BD70B50025FFF7F3FF04462F
:100BD0002D490C7004F03C001C280ED004F03C00A1
:100BE00024280AD02948007800B100E001252848CF
:100BF0000068401C2649086005E004F0800008B148
:100C0000012500E00025284670BD10B52148007878
:100C100028B100201F490870B920FFF7C3FC00204D
:100C200010BD10B5FFF7CFFFFFF7EFFF002010BD9D
:100C300010B51848007828B9012016490870AB2073
:100C4000FFF7B0FC002010BD08B500BFFFF7BBFFE9
:100C50000028FBD0042269469F20FFF71DFD00BF3E
:100C6000FFF7B1FF0028FBD0009808BD70B5FFF773
:100C700029FFFFF7E1FEFFF75CFFFFF7E5FF044602
:100C8000C4F30725002070BD162000201520002089
:100C9000182000201420002010B54FF00043414CD4
:100CA00063600423404C63601B04404C6360A523D5
:100CB0003E4CC0342370F1233C4C84F8C0300EE02D
:100CC0003A4BA0331860394BC3F8B02000F5806070
:100CD00000BF364B1B68C3F3C043002BF9D10B0098
:100CE000A1F10104A1B2EBD110BD70B503460125FD
:100CF0002F4E756200BF03252C4EB5600025756030
:100D000000BF1025B5604025B560802575606D0277
:100D1000B560AD00B5606D03224E75600425224EAE
:100D2000756018E00C88214DA0352B60A5251F4E5D
:100D300086F8C050F12586F8C0503546C5F8B04059
:100D400000BF1A4D2D68C5F3C045002DF9D1891C8F
:100D50009B1C951EAAB2002AE4DC70BD10B50123CD
:100D6000134C636200BF0323104CA3600023636035
:100D700000BF1023A3604023A360802363600B4B5C
:100D8000D0331B6823F040034033C4F8D03005E073
:100D900003880B80891C801C931E9AB2002AF7DC02
:100DA00010BD000000F0024000C0024000E0024020
:100DB00000D0024010B54FF6FF70584908805848DF
:100DC00000885849088020E04FF48173564A00217A
:100DD00054480088FFF7C6FE5348B0F80001534955
:100DE000088001234FF6FF7219024F4800F0AAF85D
:100DF0004A4908804D4800880988884200D00AE0A6
:100E000048480088401C47490880464800884849AF
:100E100009888842D8DD00BF4248008844490988D3
:100E2000884202DC4FF0FF3010BD0020FCE710B517
:100E30000020404908603A4800883A49088026E086
:100E4000FFF782FB3B480088C0F3090028B9FF2266
:100E5000012138480068FFF71FFF4FF48073324AC2
:100E6000002130480088FFF77DFE4FF480722E4944
:100E700030480068FFF739FF2A480088401C29499C
:100E800008802C48006800F580702A4908602548D1
:100E90000088274909888842D2DD10BD10B500249A
:100EA000FFF738FB02221E494FF60840FFF756FFB6
:100EB00002221F494FF60C40FFF750FFFFF77AFF61
:100EC0000446FFF734FBD4B900BF4FF480701A49D1
:100ED00008601A49C1F8A40200BF17493C390860EC
:100EE000FFF7A5FF00BF4FF4807013490860134956
:100EF000C1F8A40200BF1049403908600AE000BFF1
:100F000080200D4908600D49C1F8A40200BF0A49BC
:100F10003C39086010BD0A49086070472220002053
:100F20001C200020202000202C2000202420002035
:100F30001E20002028200020C4A2024000A0024061
:100F400008ED00E02DE9F04304460D461646304614
:100F500000222DE014F802808027002122E000F416
:100F60000049B9F1000F02D04FF0010C01E04FF041
:100F7000000C4FF6FF7909EA400008EA0709B9F1C9
:100F8000000F03D000F101091FFA89F0BCF1000F36
:100F900003D041F2210980EA09007F1001F1010923
:100FA00009F0FF010829DADB02F101091FFA89F2D1
:100FB000AA42CFDBE3B1002118E000F40049B9F107
:100FC000000F02D04FF0010C01E04FF0000C4FF683
:100FD000FF7909EA4000BCF1000F03D041F221097A
:100FE00080EA090001F1010909F0FF011029E4DBA1
:100FF000BDE8F08370470446AFF300802046FFF75A
:10100000BFF8000024100020002000202C00000069
:101010002C010020501000202C2000200401000092
:1010200048010020A55AA55A000000000000000059
:1010300000000000000000000100000000000000AF
:1010400000000000000000000000000000000000A0
:04000005200000F1E6
:00000001FF
