:020000040000FA
:100000000040002039A60000CB020000CF02000013
:10001000DF020000E3020000E70200000000000031
:100020000000000000000000000000004BA60000DF
:100030004DA60000000000004FA60000C90200000D
:10004000FD03000055A6000057A60000EB020000CB
:100050005BA600005DA600005FA6000061A6000090
:1000600063A6000065A6000067A6000069A6000060
:100070006BA600006DA600006FA6000071A6000030
:1000800073A6000075A6000077A6000079A6000000
:100090007BA600007DA600007FA6000081A60000D0
:1000A00083A600002104000087A6000089A60000A6
:1000B0008BA600008DA600008FA6000091A6000070
:1000C00093A6000095A6000097A6000099A6000040
:1000D0009BA60000550300009FA60000A1A60000FB
:1000E000A3A6000059030000A7A60000A9A60000CF
:1000F00000F002F800F070F80AA090E8000C8244CA
:100100008344AAF10107DA4501D100F065F8AFF2A6
:10011000090EBAE80F0013F0010F18BFFB1A43F0E5
:100120000103184708D8000028D8000010F8013B48
:100130000A4413F0030408BF10F8014B1D1108BF57
:1001400010F8015B641E05D010F8016B641E01F805
:10015000016BF9D1002D15D010F8014B03F00C0301
:100160000C2BA1EB04040ABF10F8013BA4EB831491
:10017000A4EB032405F1010314F8016B5B1E01F8E5
:10018000016BF9D5914238BF10F8013BD1D37047CC
:100190000023002400250026103A28BF78C1FBD890
:1001A000520728BF30C148BF0B60704703681B0A65
:1001B00028BF41F0800164290CF0DA8478290CF022
:1001C0005185E4290CF01085002070471FB50CF014
:1001D0004EFE1FBD10B510BDDFF80CD0FFF7F6FFC7
:1001E00000F040F80DF054F80040002003B4FFF791
:1001F000F1FF03BC0AF015FA40BA7047C0BA704765
:1002000002B44FF0010100FB01F0A0F10100013840
:10021000A0F100000028FAD102BC704740BA704734
:10022000C0BA70474FF00050D0F800D0D0F804F0BA
:100230000B49D1F800C04A685CF8043B10681844C8
:1002400042F8040B8C4528BFA1F1DC0C8A4228BF80
:10025000A1F1DC02C1F800C04A6020F00040704704
:100260002827002000F076F902F02EF803F039F884
:1002700001F010FA00F0E1FC00210E4800F0B7FC9C
:100280000D4800F0DDFA0022A1210C4800F071FDBC
:1002900008F091F808F00FFD094807F02BFD08E081
:1002A00000BF00F04FFD0028FBDC08F00CFD00F063
:1002B00048FAF5E7180000208CD60000F400002072
:1002C00080149F5300BFFEE77047FFF7FBFF834892
:1002D000006800F0010000B100BEFFF7F3FFFFF778
:1002E000F1FFFFF7EFFFFFF7EDFF10B57C48006966
:1002F0007B490968C1F30061084038B101207849A1
:10030000886178480068401C764908607448006934
:10031000C0F3400072490968C1F340610840C0B1B0
:1003200002206F49886107F078FC6F49086000F08F
:1003300098FB58B100F09CFB6B490968884205D8CE
:100340006AA000F051FE00F0C1FA02E06DA000F0DA
:100350004BFE10BD00BFFEE770B5292000F0ACF8E1
:10036000292000F0B2F800BF01206E498860052006
:10037000886200BF112000F0A8F8112000F09CF85E
:100380004FF4000068498860800188606548006A11
:10039000C0F34000D8B16348006E84B2634800687F
:1003A000C0F380066148B038D0F8F00100F00105D4
:1003B0003EB104F0080020B90022B0215C4800F0F2
:1003C00006FC25B104F4805008B900F0E7F82920B4
:1003D00000F07BF800BF0120524988600520886248
:1003E00000BF292000F01F02012191404209920024
:1003F00002F1E022C2F8001100BF70BD4D48006953
:10040000C0F380004B490968084040B100BFA520F7
:1004100048490863F12008630420886100BF7047E1
:1004200010B54048006CC0F3C01040B100BF0120BF
:100430003C4988600520886200BF802088633E4870
:10044000006BC0F3804008B13B48006B3A48006B3A
:10045000C0F3C00030B33848006BC0F3801008B35D
:100460000820354988633448703000783349087073
:100470003348408E1B2815D180202A4948632F48D5
:10048000007804F098FB01280CD108F0F1FF8020DF
:10049000244988634000284948662A4AF1212A48AD
:1004A00000F067FC2448006EC0F3406018B14FF0C4
:1004B00000702149886610BD00F01F0201219140A3
:1004C000224A430942F82310704700F01F0201211D
:1004D00091401F4A430942F823107047F0ED00E0B5
:1004E000009002400400002000000020616C617256
:1004F0006D3120696E746572727570742E2E2E20A7
:100500000A0000006574696D6572206E6F74207258
:1005100065717565737420706F6C6C2E2E2E200AB9
:10052000000000000080044000400140B0A00240F4
:10053000C000002000000340001000400C0000201C
:1005400098190020742000206401002080E100E060
:1005500080E200E010B507F0F1FE08F05BF807F06C
:1005600001FF1A2007F0A9FF07F0BDFF03F058FDB7
:1005700003F088FF04F046F807F0E7FA07F0BFFF42
:1005800007F00CFF08F0B2FC04F088F907F0F6FF62
:1005900008F099FB08F012FB10BD000038B50A25E1
:1005A00008F0CDFA6946122002F00DFE9DF80040D9
:1005B00000BF9DF80010122002F0FDFD69461220D8
:1005C00002F001FE2846691ECDB29DF80010C1F36D
:1005D000801108400028ECD104F0080070B10F49E8
:1005E0008868804700BF4FF400700D4908600D49CE
:1005F000C1F8A40200BF0A494039086004F0400075
:1006000028B101F004FE07F040FB0749486304F0FD
:10061000040010B105A000F0E7FC38BD941C0020D8
:10062000C4A2024000A00240D81900204341442047
:10063000444F4E452048415050454E4544200A0005
:1006400000206749C870087148718871C8710872C4
:1006500048720870704700206149C870087148717D
:100660008871C8710872487201200870704710B50F
:100670005C494869804708F022F907F0E4FE10BDA4
:1006800010B503F054FD08F042F910BD10B556A0A6
:1006900000F0AAFC08F045F808F015FB08F08EFA07
:1006A00000BF0120564988600520886200BF0020F5
:1006B0004FF0E02108610120524948660420524968
:1006C000086000F04DFB18B150A000F08DFC05E073
:1006D000BFF34F8FBFF36F8F30BF00BF00BF01204C
:1006E0004F4908604E49E439C1F8C40000BF4C4985
:1006F000403908604BA000F077FC08F0DCFA08F005
:100700001EFA03F025F907F0E1FF4B48408E0E2852
:1007100001D008F073F807F043FF10BD70B5002456
:1007200007F07BFA054600F09CF938B100F0A0F91B
:10073000401BB0F5A07F01D2012400E00024204638
:1007400070BD10B5FFF7EAFF00B110BD3B4890F84F
:100750002300022804D0394890F82300032800D150
:10076000F3E71F480078002838D01D48C07878B9D2
:1007700008F031F83048408E032803D02E48408ED0
:100780000E280BD14FF4C07025493C39086005E0B4
:100790002948408E0E2801D008F030F81048007922
:1007A00008B908F045F80E48407908B908F076F81D
:1007B0000B48807908B908F051F80948C07908B9A0
:1007C000FFF755FF0648007A08B9FFF759FF0448BC
:1007D000407A08B907F08DFEFFF758FF00BFB4E775
:1007E0000C130020941C00206D637520656E7465E9
:1007F0007220736C6565702E2E2E200A000000009A
:100800000080044000D0024010ED00E070726F6381
:10081000657373206E6576656E7473200A00000040
:10082000E4A0024077616B6575702066726F6D2081
:10083000706D38200A00000098190020D819002097
:1008400070B50446002505E054F82500002100F0AD
:10085000CEF96D1C54F825000028F5D170BD70B597
:100860000446002504E054F8250000F0DEF96D1C74
:1008700054F825000028F6D170BD000070B59048EE
:10088000006818B900208F4908601EE000F0F7FAF0
:1008900005468B480468D4E900010844461BA46857
:1008A0000AE0D4E900010844401BB04203D2D4E975
:1008B00000010844461BA468002CF2D1A819814904
:1008C00008600846006807F0B5F970BD10B57E48AD
:1008D00000F081FA10BD2DE9F04705460E4690461E
:1008E0004FF0010A288810B15F285FD109E000208D
:1008F0007349086059E000BF4FF0000A5F2028806C
:1009000000BFBAF1000F02D10120BDE8F08700BF9F
:10091000872E23D1C14604E0694800688068684991
:1009200008606748006820B165480068C0684845AD
:10093000F2D06348006870B16148046808E0A068BC
:10094000C068484503D1A0688068A06000E0A46842
:10095000A0680028F3D1FFF791FF26E0822E00D097
:1009600023E000BF0027564804681BE0204600F043
:100970006BFAA8B122468821E06800F0FAF968B95C
:100980000020E06017B1A068B86002E04C49A068A0
:1009900008600020A060FFF771FFE3E7FFF796FF14
:1009A0002746A468002CE1D100BFA4E74FF0000A5D
:1009B000002028800320A8E770B50446FFF786FFD3
:1009C000E06868B13E48056808E0A54205D13F48A7
:1009D0000068E060FFF752FF70BDAD68002DF4D1F4
:1009E0003A480068E06036480068A0603448046017
:1009F000FFF744FF00BFEFE770B504460D462946F8
:100A0000204600F00DFA2046FFF7D6FF70BD10B566
:100A10000446204600F00DFA2046FFF7CDFF10BD3A
:100A200010B50446204600F009FA2046FFF7C4FF3F
:100A300010BD70B504460D46206828442060FFF7BD
:100A40001DFF70BD0146C86808B90120704700202D
:100A5000FCE70146D1E900021044704701460868EE
:100A600070471748006808B1012070470020FCE774
:100A700000B5FFF7F6FF10B11248006800BD002076
:100A8000FCE770B505460E480068854207D10C4862
:100A9000006880680A490860FFF7F0FE0CE008482B
:100AA000046800E0A46814B1A068A842FAD11CB19F
:100AB000A868A060FFF7E2FE0020A860E86070BDB3
:100AC0001000002014000020180000202C0000203E
:100AD000C7480078C6490978491CC54A1170704753
:100AE0000146887B08B1012070470020FCE72DE912
:100AF000F04104460E46BF480768BF48056800E05D
:100B00002D68A54201D0002DFAD10DB9BDE8F081C4
:100B10002046FFF7E5FFD0B10020A073B648056876
:100B200007E0AC4204D022468721284600F02AF88C
:100B30002D68002DF5D1A06848B1B44207D0AD486A
:100B400004600022832104F10C00A3689847AA489E
:100B50000068844205D1A84800680068A64908607A
:100B60000CE0A548056806E02868A04202D120688C
:100B7000286002E02D68002DF6D100BF9D48076077
:100B800000BFC3E72DE9F04104460E461746A07B9F
:100B900000F00100C8B1A068B8B196480460022016
:100BA000A0733A46314604F10C00A3689847054605
:100BB000022D03D0032D01D0832E04D121462046DF
:100BC000FFF795FF01E00120A073BDE8F0812DE95A
:100BD000F04104460D4616468648076832462946C7
:100BE0002046FFF7CFFF83480760BDE8F08170B56E
:100BF00004460E468048056800E02D68A54201D0F5
:100C0000002DFAD1A54200D170BD7B48006820605C
:100C1000794804600120A0730020A0813246812120
:100C20002046FFF7D4FF00BFEEE710B50446714839
:100C300001682046FFF75BFF10BD8A206C490870F1
:100C400000206E4908706E4908706B490860694958
:100C50000860704710B500206A490870664804684B
:100C60000BE0E07B40B10120A0730020E073002284
:100C700082212046FFF786FF2468002CF1D110BDA9
:100C800010B55F48007800285BDD5C48007800EB19
:100C900040005D4911F820005C4908705748007811
:100CA00000EB4000584901EB80004068584908605B
:100CB0005248007800EB4000534901EB8000806807
:100CC000544908604D490978481CC11700EBD161AF
:100CD0004911A0EB4111494A117049480078401E62
:100CE000474908704B480068D8B9434800684A49EA
:100CF000086011E04348007808B1FFF7ABFF4448B3
:100D000002684248017844480068FFF73BFF4248C8
:100D100000680068404908603F4800680028E9D141
:100D20000FE03A480078812803D101203949096849
:100D30008873374802683548017836480068FFF7FD
:100D400021FF10BD10B52F48007808B1FFF782FFD2
:100D5000FFF796FF2A4800782A490978084410BD11
:100D600027480078274909780844704724480078C4
:100D7000704730B5034622480078202801D1012071
:100D800030BD1E4C24781E4D2D782C44E0B2C41783
:100D900000EBD4646411A0EB4414204D2C70284661
:100DA000007800EB4000184C04F82010284600782A
:100DB00000EB400004EB800042602846007800EB26
:100DC000400004EB800083600D480078401C0C4C10
:100DD00020700020D4E748B1817B012902D0817BBB
:100DE000022903D10121C173064A11707047000026
:100DF000300000202C0000202800002032000020BD
:100E0000310000203300002018130020340000209F
:100E1000380000203C00002040000020440000205A
:100E200070B504460D46656000F029F82138206051
:100E300070BDD0E9001211440160704710B504463E
:100E400000F01DF8206010BD70B5044600F017F8E2
:100E50002168401A451C6068A84201D2012070BD7B
:100E60000020FCE710B5044600F009F8D4E90012B0
:100E70001144081A10BD10B506F0D8FF10BD10B50A
:100E800006F0CBFE10BD70B50446002504E04FF41B
:100E90007A70FFF7B5F96D1CA542F8D370BD10B597
:100EA00004462046FFF7ACF910BD70B504464FF478
:100EB0007A7004FB00F6022C09DDFFF7B9F9A6F6FB
:100EC000B831B0FBF1F201FB120000F5FA752846CB
:100ED00070BD000070B504460D46002606E03046A1
:100EE000721C96B2215C30A000F07EF82800A5F1BB
:100EF00001018DB2F3D12EA000F076F870BD2DE97E
:100F0000F04F8FB006F037FF04460D464FF4004215
:100F10000023204629460BF08DFD039004A8039979
:100F200000F0B0FA0898C0B20E900798C0B20D90C9
:100F30000698C6B2059800F0FF09049800F0FF0A71
:100F400047F6FF7304EA030100204FF47A738446E6
:100F5000A1FB037E00FB03E001FB0C014FF4004208
:100F6000002338460BF066FD1FFA80FB33468DE800
:100F7000000E10A0DDE90D2100F036F80FB0BDE83D
:100F8000F08F2DE9F041044606F08CFE07460BF089
:100F900059FFFFF74DF985B295FBF4F004FB1050B3
:100FA00086B23046BDE8F08125302E325820000050
:100FB0000A00000063757272656E742074696D6555
:100FC00020697320253032642D253032642025308D
:100FD00032643A253032643A253032642E2530337B
:100FE000640A0000704700000FB4044910B503AA5A
:100FF00002980CF023F910BC5DF814FBC40100202A
:10100000303631363034313231300246D0B24140A0
:1010100081EA0110C1B2080240EA222080EA2110D0
:1010200080EAC10070472DE9F04304460D4616469C
:10103000304600222DE014F802808027002122E0B3
:1010400000F40049B9F1000F02D04FF0010C01E0AB
:101050004FF0000C4FF6FF7909EA400008EA070953
:10106000B9F1000F03D000F101091FFA89F0BCF1BA
:10107000000F03D041F2210980EA09007F1001F13D
:10108000010909F0FF010829DADB02F101091FFA61
:1010900089F2AA42CFDBE3B1002118E000F4004955
:1010A000B9F1000F02D04FF0010C01E04FF0000C3D
:1010B0004FF6FF7909EA4000BCF1000F03D041F27E
:1010C000210980EA090001F1010909F0FF01102955
:1010D000E4DBBDE8F08370B503460024594000BF4F
:1010E0000CE0084601EBD0767610A1EB4606F5B28F
:1010F0004910012D00D15140601CC4B2082CF0DB16
:10110000084670BD2DE9F04F05460F4690469946BA
:1011100044464FF0000A0AE028784A462146FFF785
:10112000DAFF04466D1C0AF1010000F0FF0ABA451F
:10113000F2DB2046E11704EB1161C1F3072BE11745
:1011400004EB11610912A4EB0121CEB20BEB0620D6
:1011500084B22046BDE8F08F10B50246002300207F
:1011600003E0145C6340441CE0B28842F9DBD8B26F
:1011700010BD30B503460C460021002204E09D5C02
:101180000D44A9B2551CEAB2A242F8DBCD43A9B284
:101190004D1CA9B2C8B230BD10B5024600230020D4
:1011A00004E0145C1C44A3B2441CE0B28842F8DBA7
:1011B000D8B210BD2DE9F04306460F4690461C46B6
:1011C000DDF81C90012C07D14B464246394630468B
:1011D000FFF798FF054616E0022C05D13946304648
:1011E000FFF7C7FF05460EE0032C05D13946304610
:1011F000FFF7B2FF054606E0042C04D1394630461D
:10120000FFF7CAFF05462846BDE8F08378B50446D7
:1012100000250095002024E0009D2D010095155C1F
:10122000392D05DC155C303D009E3544009516E0F7
:10123000155C412D08DB155C462D05DC155C373D42
:10124000009E354400950AE0155C612D07DB155CB6
:10125000662D04DC155C573D009E35440095451C09
:10126000E8B21D00A3F10106F3B2D5D1002004E0DD
:101270001DF800502554451CE8B28842F8DB78BDC3
:101280002DE9F04788B081460C4616460025002718
:10129000B24618E0605D392802DC605D30280BDA68
:1012A000605D412802DB605D462805DD605D6128E8
:1012B00007DB605D662804DC605D0DF80700781CC4
:1012C000C7B2681CC5B25FEA0A00AAF1010101F0C9
:1012D000FF0ADFD13E46304606EBD0714910A6EB3F
:1012E000410119B1002008B0BDE8F0874FF00008B7
:1012F0000CE0694601EB480209EB080002230121DA
:10130000FFF784FF08F1010000F0FF0806EBD6713B
:10131000B8EB610FEDDB0120E5E70023137011E06E
:1013200000F00F030B700B780A2B03DB0B783733BD
:101330000B7002E00B7830330B70491C13785B1C88
:10134000137000090028EBD1137823B930230B70F8
:1013500013785B1C137070472DE9F04180460D46F1
:101360001646324629464046FFF7D7FF00240BE0D9
:101370002F5D3078401E001B285C28553078401EB9
:10138000001B2F54601CC4B2307800EBD071B4EB5A
:10139000610FEDDBBDE8F08110B5002313700FE0A5
:1013A0000A23B0FBF3F403FB14030B700B78303308
:1013B0000B70491C13785B1C13700A23B0FBF3F00D
:1013C0000028EDD1137823B930230B7013785B1C00
:1013D000137010BD2DE9F04180460D461646324689
:1013E00029464046FFF7D8FF00240BE02F5D3078F8
:1013F000401E001B285C28553078401E001B2F54CF
:10140000601CC4B2307800EBD071B4EB610FEDDB3F
:10141000BDE8F08178B504460025009500200CE079
:10142000009D05EB85056D0000950546461CF0B254
:10143000555D303D009E354400951D00A3F1010629
:10144000F3B2EDD1002004E01DF800502554451CF6
:10145000E8B28842F8DB78BD0A220A70084A1368AD
:1014600003605368436012890281704770B5044677
:101470000A22214602480BF003FD0546284670BDAE
:10148000001000002DE9F0430B4603F5E143DFF8BF
:10149000F4C1B3FBFCF1B3FBFCF80CFB18344FF4C4
:1014A000616CB4FBFCF58560B4FBFCF80CFB1845E3
:1014B0002C464FF03C0CB4FBFCFCC0F804C04FF0D1
:1014C0003C0CB4FBFCF80CFB184CC0F800C001F15C
:1014D000040C4FF00708BCFBF8F908FB19CCC0F866
:1014E00018C0BCF1000F05DAD0F818C00CF1070CD9
:1014F000C0F818C040F2B27200BF02F0030CBCF199
:10150000000F08D14FF0640CB2FBFCF80CFB182C58
:10151000BCF1000F08D14FF4C87CB2FBFCF80CFB07
:10152000182CBCF1000F02D14FF0010C01E04FF07C
:10153000000C6746DFF850C13CF817C08C4500D955
:1015400007E0521CDFF840C13CF817C0A1EB0C01CA
:10155000D3E700BFA2F26C7CC0F814C0C16107EBF6
:10156000470CDFF8288108EB8C064FF0000CC0F820
:1015700010C00BE0D0F810C016F80CC0A1EB0C01A5
:10158000D0F810C00CF1010CC0F810C0D0F810C099
:1015900016F80CC08C45EDD9D0F810C00CF1010C38
:1015A000C0F810C001F1010CC0F80CC04FF0FF3CB6
:1015B000C0F820C0BDE8F083F0B50146002000234C
:1015C000D1E90045C5EB051504EB85048D68C5EB35
:1015D0004516C6EB052504EB05142044CC68641EB3
:1015E00023440C69641E2A4D35F8144023440D69C8
:1015F000012D20DD4C69E51704EB9575AD10A4EBCA
:10160000850595B964264D6995FBF6F706FB1755D8
:1016100045B94D6905F26C75B60095FBF6F706FB0A
:10162000175515B94FF4B77501E040F26D15B5F5D2
:10163000B77F00D15B1C462218E002F003048CB98E
:101640006424B2FBF4F504FB152444B902F26C7473
:101650004FF4C875B4FBF5F605FB164414B94FF406
:10166000B77401E040F26D142344521C4C6994425B
:10167000E3D840F2A3245C4300EBC410A0F5E140A2
:10168000F0BD000080510100C8D60000B0D60000B7
:10169000CCD6000000207C4981F8400181F842014D
:1016A00081F8410170472DE9F05F04460D4616466A
:1016B0001F46DDE90BABDDF82890734890F8400138
:1016C000142802D10020BDE8F09F00BF00F0D6F83A
:1016D0008046012000F0D5F86B4890F841016A4936
:1016E00001EB0010007864F3071091F84111664A8D
:1016F00002EB01110870104690F84101114601EB10
:101700000010007820F00F0091F8411102EB011158
:101710000870104690F84101114601EB0010457029
:10172000084690F8410101EB00104680084690F809
:10173000410101EB0010C0F804B091F8411102EB37
:10174000011101F108004A4639460BF010FC4E48E1
:1017500090F841014C4901EB001080F80FA00846B9
:1017600090F84101401C142190FBF1F201FB1200A2
:10177000454981F84101084690F84001401C81F834
:101780004001404600F07DF801209CE77FB504460B
:1017900000BF00F073F80546012000F072F83A48E7
:1017A00090F8400100281EDD374890F84201364984
:1017B00001EB0013D3E90020D3E9021301AE0BC6FD
:1017C0000092314890F84201401C142190FBF1F244
:1017D00001FB12002C4981F84201084690F84001B3
:1017E000401E81F84001284600F04BF89DE80F00AC
:1017F00084E80F007FBD1420704770B500BF00F073
:101800003DF80446012000F03CF81F4890F8405194
:10181000204600F036F8284670BDF0B589B000BF0C
:1018200000F02CF80546012000F02BF8FFF7E5FF4B
:101830000446214615A0FFF7D7FB002C19DD002632
:1018400000BF13E001A8FFF7A1FF01A80FC805AF73
:101850000FC79DF8230038B1124805A98EC98EC064
:101860001021103802F066F9701CC6B2A642E9DBFE
:1018700000BF284600F005F809B0F0BDEFF3108076
:10188000704780F3108870479814002073656E735A
:101890006F72206461746120656C6573203D202542
:1018A00064200A00DC15002010B5FE4890F80E01F7
:1018B00004280CDDFB48C07A122808D1F94890F8BA
:1018C0000E01001F81B2F748123002F033F910BD4B
:1018D00010B50020F3490870487088724873A1F869
:1018E0001001C8808880087381F80E010881C872D1
:1018F00081F80F0188704FF48071EA480E300BF0C8
:10190000B5FB10BD10B5FFF7E3FF4120E5490870B6
:1019100088204870E44800788870E3480078401CCC
:10192000E14908704FF6FF70DE498880C880DF48C3
:10193000008A0881084690F80E01001D8872012077
:10194000C87208734873D948807C8873D748408A26
:10195000010AD448C1730220D24981F80E010B203C
:1019600081F80F01084690F80E01001D88720120D1
:1019700010BD4120CB49087088204870CA480078C3
:101980008870C9480078401CC74908704FF6FF703E
:10199000C4498880C880C548008A08818420C872EC
:1019A0000120087348730B2081F80F01084690F856
:1019B0000E01001D88720120704730B589B0FFF715
:1019C00087FFFFF71AFF0446002C02DC002009B055
:1019D00030BD4120B349087088204870B248007873
:1019E0008870B1480078401CAF4908704FF6FF700E
:1019F000AC498880C880AD48008A0881084690F8C4
:101A00000E01001D88720A20C872012008734873F5
:101A1000002511E001A8FFF7B9FE01A80FC8CDE924
:101A20000723CDE905019F490E31102202FB051065
:101A300005A90BF09CFA6D1CA542EBDB9A4890F8C7
:101A40002200401CC0B2984981F822002201954929
:101A50000E31885400222001401C0A542001801CB1
:101A60000E3981F80E010B2081F80F01084690F81D
:101A70000E01001D88720120A9E710B5FFF728FFAD
:101A8000412088490870882048708748007888700D
:101A900085480078401C844908704FF6FF708149E2
:101AA0008880C8808148008A08818B20C872012004
:101AB0000873487388737C48017C7A48C1737A48FC
:101AC000008A010A7748017477480069010C75485B
:101AD000417475480069000E72498874052081F8C8
:101AE0000E010B2081F80F01084690F80E01001D31
:101AF000887210BD10B5FFF7EBFE50216948143015
:101B000002F00DFD0446002C01DC002010BD412038
:101B1000644908708820487063480078887062487B
:101B20000078401C604908704FF6FF705D4988805E
:101B3000C8805E48008A08810C20C87201200873A2
:101B4000487359484069401C57494861012055492C
:101B5000887300215348C1735348017D5148017473
:101B60005148808A010A4F4841744F484069010C2E
:101B70004C4881744C484069000E4A49C874A01D05
:101B800081F80E010B2081F80F01084690F80E0134
:101B9000001D88720120B9E710B50446FFF798FED2
:101BA000412040490870882048703F48007888707C
:101BB0003D480078401C3C4908704FF6FF70394999
:101BC0008880C8803948008A0881084690F80E014C
:101BD000001D88720320C8720120087348733348BF
:101BE000807C88733148408A010A2E48C1731022D4
:101BF000214610300BF0BBF92B4890F82200401C16
:101C0000C0B2294981F82200264981F8200000212C
:101C1000244880F821101420224981F80E010B205D
:101C200081F80F01084690F80E01001D887210BD62
:101C300041211C4A1170882151701B49097891700B
:101C400019490978491C184A117028B14FF6FF71DB
:101C5000144A9180D18006E015494988114A918043
:101C600013490988D1801149098A0E4A118111212D
:101C7000D1720121117351730C49897C91730B4905
:101C8000498A0A0A0749CA7301220A744A7403225C
:101C90008A740222CA740A7504498A7D01494A7508
:101CA000024907E0EC150020D819002098190020FF
:101CB000881C0020C98A0A0AFB498A750921FA4A48
:101CC00082F80E110B2182F80F11114691F80E11B6
:101CD000091D917270472DE9F04188B08046FFF7E9
:101CE0008CFD0546002D03DC002008B0BDE8F08126
:101CF0004120ED49087088204870EC4800788870D1
:101D0000EA480078401CE94908700846C088E6495E
:101D10008880E6488088C880E548008A08810846AF
:101D200090F80E01001D88721220C87201200873FD
:101D30004873DF48807C8873DD48408A010ADA48AE
:101D4000C17380F81080D94890F82200401CC0B2BE
:101D5000D64981F82200D4494874ECB20027002605
:101D60001FE06846FFF712FD9DE80F00CDE906234E
:101D7000CDE904019DF81F0060B1781CC7B27A1E3E
:101D8000C9491231102303FB02101A4604A90BF0B3
:101D9000EEF805E0601EC4B2002C01DC0020A4E7D0
:101DA000761CAE42DDDB2001001DBF4981F80E012B
:101DB0000B2081F80F01084690F80E01001D887273
:101DC000012092E710B5BA48C08B0005010CB64857
:101DD000123001F068FF0446002C01DC002010BD29
:101DE0004120B149087088204870B0480078887058
:101DF000AE480078401CAD4908700846C088AA4922
:101E00008880AA488088C880A948008A0881122052
:101E1000C872012008734873A548807C8873A44861
:101E2000408A010AA048C173002101749F4890F8BC
:101E30002200401CC0B29D4981F822009A49487492
:101E4000201D81F80E010B2081F80F01084690F843
:101E50000E01001D88720120C1E74121924A1170D4
:101E60008821517091490978917090490978491CED
:101E70008E4A11704FF6FF718B4A9180D1808C4948
:101E8000098A11810921D172012111735173884985
:101E9000897C91738649498A0A0A8349CA738549AC
:101EA00091F8502080490A7403217F4A82F80E116C
:101EB00000202EE07F4911F82020032101EB800350
:101EC00079490E31CA547B4931F820100A0A04219D
:101ED00001EB800374490E31CA54764901EB80014D
:101EE0008A78052101EB80036F490E31CA5471498C
:101EF00001EB8001CA78062101EB80036A490E31AB
:101F0000CA540E3991F80E11091D674A82F80E1154
:101F1000401C684991F850108142CBDC624991F82D
:101F20000E11091D604A91720B2182F80F11704742
:101F300010B5044601205C49887344B1C81C5EA1F9
:101F40000A68C2608A8802828979817408E05648EA
:101F5000C01C5BA10A68C2608A8802828979817488
:101F60000820514981F80E01FFF703FD04F01DFC24
:101F700010BD10B54C480078534908704A48407865
:101F8000487049488078887047480079C87046484A
:101F90008088000A08714448807948714248C088A6
:101FA000000A88714048007AC8713F480089000AD9
:101FB00008723D48807A48723B48C07A88723A4835
:101FC000007BC8723848407B0873374890F80E2170
:101FD00000F10E013C480D300AF0C9FF324890F87C
:101FE0000F1190F80E010D30374A11542E4890F819
:101FF0000E0100F10E0101234FF6FF723248FFF788
:1020000012F804462848A0F8104190F80E010E304E
:102010002D4A1454210A244890F80E010F3011540F
:102020002AA0FEF7E1FF204890F80E0100F1100110
:102030002548FEF74FFF1C4890F80E011030C1B242
:10204000274802692048904710BD70B505462548CD
:102050000078102805DA2348017823A0FEF7C4FF92
:1020600070BD20480078801E1E49491C085A274927
:10207000A1F810011B480078801E81B201234FF6A1
:10208000FF721848401CFEF7CEFF04461F48B0F808
:102090001001A04254D01D48B0F8101122461CA0D7
:1020A000FEF7A2FFDCE70000EC150020D8190020A5
:1020B00098190020302100202B5343423A4F4B0007
:1020C0002B5343423A4552001519002073656E6444
:1020D000207061796C6F61642069733A20000000A0
:1020E000941C0020141800207278206672616D65BF
:1020F000206C656E2073686F72742C207278206C6F
:10210000656E203D202578200A0000000017002081
:10211000637263206572726F722C207265636569E9
:1021200076656420637263203D2025782C206361EE
:102130006C6320637263203D202578200A00000034
:1021400040484078404908703E48807848703D4893
:10215000808888803B48C088C8803A4800890881C8
:102160003848807A8872084680883849498A884287
:1021700005D0354880884FF6FF71884242D13248F9
:10218000C0883249098A884205D02F48C0884FF656
:10219000FF71884239D12B48C07A2B49C87229482F
:1021A000007B08732748407B487326480078A0F1DD
:1021B000100224490E3124480E300AF0D8FE21487E
:1021C00000781038204981F80E011E480078C01EA2
:1021D0001C49491C085C1C4981F80F01084680F81D
:1021E00012511B49086A8047174981F813010846B4
:1021F00090F80F010B2808D10022EA211548FEF7BC
:10220000B8FD02E014A0FEF7EFFE00BF28E710B50E
:102210000F480C49C268481C90470D49886980479F
:10222000044618A0FEF7E0FE21461BA0FEF7DCFEE8
:1022300004480178401CFEF74DFE2046FFF705FFDD
:1022400010BD00001418002000170020981900206D
:10225000941C0020E40000206465737420616464B1
:1022600072206F7220646573742070616E206964DF
:10227000206973206E6F7420636F727265637420BF
:102280000A000000726563656976656420667261A4
:102290006D653A200000000072737369203D2025AF
:1022A00064200A0010B504463C2221464FF47C40CD
:1022B00006F0F6FF10BD10B504463C2221464FF44F
:1022C0007C4006F055FF10BD10B5FE48FFF7F3FF48
:1022D000FC480068FC49884205D0FC48FFF7E2FF53
:1022E000F848FFF7E8FFF748008A28B1F548008A68
:1022F0004FF6FF7188420DDBF248F449098A0182EA
:102300004068401C08B9012002E0EE484068401CCB
:10231000EC494860EB48408A28B1EA48408A4FF6C9
:10232000FF7188420DDBE748E849498A41824068ED
:10233000401C08B9012002E0E2484068401CE14925
:102340004860E048808A28B1DE48808A4FF6FF71F5
:1023500088420DDBDB48DD49898A81824068401C68
:1023600008B9012002E0D7484068401CD5494860C0
:10237000D448C08A20B1D348C08AB0F5E16F0DDBE4
:10238000D048D249C98AC1824068401C08B901209E
:1023900002E0CC484068401CCA494860C948008BEC
:1023A0000A280DDDC748C949098B01834068401CD4
:1023B00008B9012002E0C3484068401CC149486098
:1023C000C048408B012803DBBE48408B64280DDDEC
:1023D000BC48BE49498B41834068401C08B9012074
:1023E00002E0B8484068401CB6494860B548808B58
:1023F000282805DBB348808B40F6B83188420DDDD4
:10240000B048B249898B81834068401C08B90120DB
:1024100002E0AC484068401CAA494860A948C08B0B
:1024200018B1A848C08B64280DDDA648A749C98B00
:10243000C1834068401C08B9012002E0A1484068FF
:10244000401CA04948609F48008C012803DB9D4840
:10245000008C10280DDD9B489C49098C0184406844
:10246000401C08B9012002E096484068401C95498C
:1024700048609448408C012805DB9248408C4EF619
:10248000602188420DDD8F489049498C4184406825
:10249000401C08B9012002E08A484068401C894974
:1024A00048608848808C002804DD8648808CB0F520
:1024B000167F0DDD83488549898C81844068401CE6
:1024C00008B9012002E07F484068401C7D4948600F
:1024D0007C48C08C282805DB7A48C08C40F6B8318F
:1024E00088420DDD77487949C98CC1844068401C19
:1024F00008B9012002E073484068401C71494860F7
:10250000704991F8280000F0B3FB68B96D486F4935
:10251000098D01854068401C08B9012002E0694826
:102520004068401C67494860664991F82A0000F0FD
:10253000BDFB68B963486549498D41854068401CC9
:1025400008B9012002E05F484068401C5D494860CE
:102550005C4991F82C0000F0B6FB68B959485B491A
:10256000898D81854068401C08B9012002E05548EA
:102570004068401C534948605248C08D14280DDD06
:1025800050485249C98DC1854068401C08B9012096
:1025900002E04C484068401C4A4948604948008E67
:1025A00041F2EA01884205DB4648008E41F2EC31F7
:1025B00088420DDD43484549098E01864068401C2C
:1025C00008B9012002E03F484068401C3D4948608E
:1025D0003C48408E18B13B48408E1E280DDD3948DE
:1025E0003A49498E41864068401C08B9012002E002
:1025F00034484068401C334948603248808E4FF66A
:10260000FF71884202D02F48808E68B92D482F492B
:10261000898E81864068401C08B9012002E0294863
:102620004068401C274948602648C08E4FF6FF711D
:1026300088420DD123482549C98EC1864068401C77
:1026400008B9012002E01F484068401C1D4948604D
:102650001C4890F83800012814D01A4890F8380027
:1026600002280FD01748194991F8381080F838100F
:102670004068401C08B9012002E012484068401C34
:10268000104948600F48406828B100200D49486053
:102690000846FFF707FE00200D490870012048702A
:1026A0000020887008814881C8600884012081F872
:1026B0002300002007494882C88288824881C88157
:1026C000888109E09819002052238139E4D600005E
:1026D000D8190020101A002008822E4981F8F00035
:1026E00010BD10B52C48FFF7DDFD10BD10B52A490F
:1026F00091F8280000F05DFA274991F82A0000F0CF
:102700007CFA254991F82C0000F09BFA10BD0020BE
:1027100016E0002100EB40021E4B03EBC202917158
:1027200000EB400203EBC202918000EB400203EB9E
:10273000C202D17100EB400203EBC2021172401CD5
:10274000144991F8F0108142E3DC0021114A82F82B
:10275000F0107047002011490871C87008830021EB
:102760000E4A1161516111468883C88308708870D0
:1027700008728871C8714871487088767047002067
:10278000074988710881088048800871C8714871BC
:1027900070470000281A002098190020201B0020F4
:1027A000881C002010B504462146012000F003FDDE
:1027B00010BD01460A2291FBF2F08003704710B56C
:1027C0008121012000F0F7FC10BD08B56946012009
:1027D00000F0F9FC9DF8000008BD2DE9FE4380469D
:1027E0000020029001900090FFF7EFFF8146FFF775
:1027F000E6FF4046FFF7DDFF0446C4F30745C4F398
:102800000726E7B22946062000F0D5FC314607200E
:1028100000F0D1FC3946082000F0CDFC02A90620CA
:1028200000F0D1FC01A9072000F0CDFC694608208A
:1028300000F0C9FC9DF80800A84202D00020BDE8C5
:10284000FE839DF80400B04201D00020F7E79DF818
:102850000000B84201D00020F1E74846FFF7A2FF90
:102860000120ECE738B5044669461E2000F0ABFCB9
:102870009DF8000000F0FB00009024F0FB049DF8A0
:102880000000204300909DF800101E2000F093FCF3
:1028900038BD70B504460D46052C01DD012070BD24
:1028A00000F03EFC00F062FC00F050FC0021012032
:1028B00000F081FC8021012000F07DFC81210120BD
:1028C00000F079FCF64890F82E0040F070010920E5
:1028D00000F071FC012D04D104214D2000F06BFCAF
:1028E00003E007214D2000F066FC02210A2000F0E1
:1028F00062FC3B210B2000F05EFC5021222000F006
:102900005AFC0C21262000F056FC0420FFF7AAFFF9
:10291000E349088EFFF761FF08B90220BFE70020F6
:10292000BDE710B500F022FC10BD38B504460D46D9
:102930006946122000F047FC8121012000F03BFC99
:102940000021202000F037FC0A21212000F033FC78
:102950002946222000F02FFC00F05BFC80210E2095
:1029600000F029FC80210D2000F025FC2A4621469C
:10297000002000F00BFCFF21122000F01CFCF721CE
:10298000112000F018FC4021084600F014FC8321BF
:10299000012000F010FC38BD1CB5044601A9102030
:1029A00000F011FC8121012000F005FC0021202015
:1029B00000F001FC0A21212000F0FDFB214622202D
:1029C00000F0F9FB01A9112000F0FDFBBF2111204F
:1029D00000F0F1FB01A9112000F0F5FB00214020DF
:1029E00000F0E9FB00F015FC00210F2000F0E3FBF4
:1029F00000210D2000F0DFFB6946122000F0E3FB10
:102A0000FF21122000F0D7FB8521012000F0D3FB2D
:102A1000FFF7DBFE009006E08521012000F0CBFBF4
:102A2000FFF7D3FE00909DF8000000F00500052898
:102A3000F2D11CBD38B505460C462146132000F0E6
:102A4000C2FB2078802800DD38BD6946102000F0E8
:102A5000BAFB9DF800100D2000F0ADFB2178284650
:102A600000F0C3FBFF21122000F0A5FB00BFEBE745
:102A700070B504460D4600210D2000F09CFB294650
:102A8000204600F0B2FBFF21122000F094FB70BD45
:102A900010B58121012000F08EFB8021012000F083
:102AA0008AFB10207F4908607F49C1F8880210BD69
:102AB00070B504460125062C59D2DFE804F058030E
:102AC0001425364772211D2000F075FBC4211E20FD
:102AD00000F071FB0021202000F06DFB0A21212075
:102AE00000F069FB45E082211D2000F064FBB42169
:102AF0001E2000F060FB0021202000F05CFB0A217A
:102B0000212000F058FB34E088211D2000F053FB09
:102B100084211E2000F04FFB0021202000F04BFB01
:102B20000A21212000F047FB23E098211D2000F01E
:102B300042FB74211E2000F03EFB0021202000F00B
:102B40003AFB0A21212000F036FB12E092211D20E1
:102B500000F031FB74211E2000F02DFB002120200D
:102B600000F029FB0A21212000F025FB01E00025CF
:102B700000BF00BF284670BD0EB502A91B2000F0A3
:102B800022FB01A91A2000F01EFB6946192000F063
:102B90001AFB9DF804000EBD08B569461D2000F023
:102BA00012FB9DF8000020F00F0000909DF800003F
:102BB00008BD38B5044669461D2000F004FB9DF8A9
:102BC000000000F00F00009024F00F049DF80000BA
:102BD000204300909DF800101D2000F0ECFA38BD55
:102BE00008B569461D2000F0EEFA9DF8000020F0BF
:102BF000F10000909DF8000008BD38B50446694614
:102C00001D2000F0E0FA9DF8000000F0F1000090B7
:102C100024F0F1049DF80000204300909DF800107E
:102C20001D2000F0C8FA38BD08B569461E2000F026
:102C3000CAFA9DF8000020F00F0000909DF80000F7
:102C400008BD38B5044669461E2000F0BCFA9DF860
:102C5000000000F00F00009024F00F049DF8000029
:102C6000204300909DF800101E2000F0A4FA38BD0B
:102C7000014689B110290FD020290DD030290BD061
:102C8000402909D0502907D0602905D0702903D0E8
:102C9000802901D0902901D1012070470020FCE754
:102CA0009819002088A2024000A002400146022993
:102CB00005D0042903D0062901D0082901D101201B
:102CC00070470020FCE7014660290BD0702909D02D
:102CD000802907D0902905D0A02903D0B02901D0A0
:102CE000C02901D1012070470020FCE710B5002168
:102CF00021E0EE4A128D8B00ED4C34F813309A42ED
:102D000018D1EA4A528D012303EB810334F81330C2
:102D10009A420FD1E54A928D022303EB810334F8E6
:102D200013309A4206D1032202EB8102234633F884
:102D3000120002E0491C0429DBDB00BF10BD10B506
:102D40008121012000F037FA8021402000F033FA81
:102D50008721012000F02FFAFFF737FD044606E037
:102D60008721012000F027FAFFF72FFD044604F029
:102D700007000728F4D110BD70B505460E4614466D
:102D800005F00F00002859D128110A2856D2DFE893
:102D900000F0050D151D252D353D454D04202070F5
:102DA0002278C4A130460AF0E2F848E005202070FD
:102DB0002278C2A130460AF0DAF840E005202070FF
:102DC0002278C0A130460AF0D2F838E00520207001
:102DD0002278BEA130460AF0CAF830E00520207003
:102DE0002278BCA130460AF0C2F828E00520207005
:102DF0002278BAA130460AF0BAF820E00520207007
:102E00002278B8A130460AF0B2F818E0032020700A
:102E10002278B6A130460AF0AAF810E0032020700C
:102E20002278B3A130460AF0A2F808E0032020700F
:102E30002278B0A130460AF09AF800E000BF00BF47
:102E400070BD70B50446FF2504229AA120460AF001
:102E500043F808B9002546E0052298A120460AF06B
:102E60003BF808B910253EE0052296A120460AF05D
:102E700033F808B9202536E0052294A120460AF04F
:102E80002BF808B930252EE0052292A120460AF041
:102E900023F808B9402526E0052290A120460AF033
:102EA0001BF808B950251EE005228EA120460AF025
:102EB00013F808B9602516E003228CA120460AF019
:102EC0000BF808B970250EE0032289A120460AF00C
:102ED00003F808B9802506E0032286A1204609F000
:102EE000FBFF00B99025284670BD70B505460E461B
:102EF0001446022D06D0042D0CD0062D12D0082D1C
:102F000020D117E00320207022787BA130460AF000
:102F10002EF818E003202070227878A130460AF0BD
:102F200026F810E003202070227875A130460AF0C0
:102F30001EF808E003202070227872A130460AF0C3
:102F400016F800E000BF00BF70BD70B50446FF2555
:102F5000042269A1204609F0BFFF08B9022516E046
:102F6000052266A1204609F0B7FF08B904250EE046
:102F7000052263A1204609F0AFFF08B9062506E047
:102F8000052260A1204609F0A7FF00B908252846C0
:102F900070BD70B505460E461446902D26D006DC51
:102FA000602D0BD0702D11D0802D3FD116E0A02DBB
:102FB00024D0B02D2AD0C02D38D12FE00120207090
:102FC000227847A1304609F0D2FF30E0012020707E
:102FD00022784DA1304609F0CAFF28E00120207078
:102FE00022784AA1304609F0C2FF20E0012020707B
:102FF000227847A1304609F0BAFF18E0022020707D
:10300000227844A1304609F0B2FF10E0022020707F
:10301000227841A1304609F0AAFF08E00220207082
:1030200022783EA1304609F0A2FF00E000BF00BFB9
:1030300070BD70B50446FF25042229A1204609F081
:103040004BFF08B960252EE004222FA1204609F08D
:1030500043FF08B9702526E004222CA1204609F080
:103060003BFF08B980251EE0042229A1204609F073
:1030700033FF08B9902516E0052226A1204609F065
:103080002BFF08B9A0250EE0052223A1204609F058
:1030900023FF08B9B02506E0052220A1204609F04B
:1030A0001BFF00B9C025284670BD000098190020FC
:1030B00020D70000375F38310000000031305F3426
:1030C0003100000031355F363200000032305F38A9
:1030D0003300000033315F323500000034315F3699
:1030E0003600000036325F353000000031323500E6
:1030F0003235300035303000345F3500345F360013
:10310000345F3700345F38003700000038000000BB
:103110003900000031300000313100003132000050
:1031200000BF20223D4B1A603D4BC3F8A42200BFD4
:103130003C4A126E91B23B4A106D4EF6FF720A4045
:10314000384B1A6640F480521A65704710B505F086
:1031500015FC10BD012804D12021304A3C3A1160F1
:1031600003E020212D4A403A1160704710B501203C
:10317000FFF7F0FF4FF47A70FDF791FE0020FFF7A4
:10318000E9FF43F69820FDF78AFE10BD70B50446AE
:103190000D46164644F080003246294605F03AFCBA
:1031A00070BD70B504460D46164632462946204687
:1031B00005F078FC70BD13B50446012201A9204634
:1031C000FFF7E4FF1CBD70B504460D4601222946F9
:1031D0002046FFF7E6FF70BD70B504460D462A464F
:1031E00021460020FFF7D2FF70BD70B504460D46A2
:1031F0002A4621460020FFF7D4FF70BD20B11021E0
:10320000064A403A116003E01021044A403A116036
:10321000704710200149403908607047C4A202403D
:1032200000A002400080044010B501210420FFF7F7
:1032300030FB044624B13CA0FDF7D6FE204610BD6D
:103240003FA0FDF7D1FE0020F9E710B5FFF769FBBD
:1032500010BD10B56420FFF79FFB10BD70B504468C
:103260000D4629462046FFF7E5FB70BD70B50546C3
:103270000E4600BF00BFEFF310800446012080F32C
:10328000108800BF00203549887031462846FFF776
:103290004CFB204680F3108800BF70BD10B5FFF7CF
:1032A000F7FB00BF10202E4908602E49C1F8A40288
:1032B00000BF2B493C39086010BD70B5FFF75CFCBE
:1032C000044620010F2190FBF1F0A43845B22846B6
:1032D00070BD10B5FFF750FC10BD10B5FFF72FFD06
:1032E00010BD10B5AFF2BF001F490860AFF2A500D6
:1032F0004860AFF2A1008860AFF29F00C860AFF2F3
:1033000093000861AFF26B004861AFF25100886131
:10331000AFF23900C861AFF2450008620868804723
:10332000FFF7E4F910BD00006C6F726120696E69EF
:103330007469616C697A65206661696C200A0000B5
:103340006C6F726120696E697469616C697A65205D
:1033500073756363657373200A000000D819002039
:10336000C4A2024000A00240941C002010B50246F6
:1033700000204FF0402100BF4FF47F438B658B1539
:103380004B6500BF00BF4FF0E0638B658B024B6560
:1033900000BFCB034B620B044B6200BF4B154B626B
:1033A0004FF440438B6200BF04238B654023FE4CE7
:1033B00023600A7000BF0B69C3F3C013002BFAD05F
:1033C00000BF0B69C3F30343012BFADB4FF000533B
:1033D0004B624023F44C241F236010BD30B50246DD
:1033E0000B4600204FF0402104248C6500BF4C1593
:1033F0004C624FF440448C6200BF00BF4FF0E06469
:103400008C658C024C6500BFCC034C620C044C6292
:103410004024E54D2C600A7000BF0C69C4F3C01451
:10342000002CFAD000BF0C69C4F30344012CFADB72
:103430004FF000544C6200240C7000BF0C69C4F3C0
:10344000C014002CFAD000BF0C69C4F30344012C53
:10345000FADB0C781C704024D34D2D1F2C6030BD3E
:10346000F0B503460C46002000254FF0402104260D
:103470008E6500BF4E154E624FF440468E6200BF0F
:1034800000BF4FF0E0668E658E024E6500BFCE0332
:103490004E620E044E624026C34F3E600B7000BF6A
:1034A0000E69C6F3C016002EFAD000BF0E69C6F32F
:1034B0000346012EFADB17E04FF000564E6200265D
:1034C0000E7000BF0E69C6F3C016002EFAD000BF02
:1034D0000E69C6F30346012EFADB91F800C02E46B2
:1034E0006F1CBDB204F806C01600A2F10107BAB203
:1034F000E2D14026AC4F3F1F3E60F0BDF0B5034621
:103500000C46002000254FF0402104268E6500BFA8
:103510004E154E624FF440468E6200BF00BF4FF022
:10352000E0668E658E024E6500BFCE034E620E04CD
:103530004E6240269C4F3E600B7000BF0E69C6F382
:10354000C016002EFAD000BF0E69C6F30346012E46
:10355000FADB4FF000564E6212E0665D0E7000BF5F
:103560000E69C6F3C016002EFAD000BF0E69C6F36E
:103570000346012EFADB4FF000564E626E1CB5B2C8
:103580001600A2F10107BAB2E7D14026864F3F1FCD
:103590003E60F0BDF0B504460D4600204FF04021DE
:1035A00004268E6500BF4E154E624FF440468E6273
:1035B00000BF00BF4FF0E0668E650E034E6500BF92
:1035C0000E044E624026784F3E6013E04FF00056E6
:1035D0004E6226680E6000BF0E69C6F3C016002E4C
:1035E000FAD000BF0E69C6F30346042EFADB2E1F85
:1035F000B5B2241D042DE9DA00BF4FF0E0668E65F8
:103600004FF080764E6500BF11E04FF000564E62DD
:1036100026780E6000BF0E69C6F3C016002EFAD0E1
:1036200000BF0E69C6F30346012EFADB641C2E00B0
:10363000A5F10107BDB2E8D100BF4FF0E0668E658D
:103640004FF080664E6500BF15E04FF000564E62A9
:1036500000260E6000BF0E69C6F3C016002EFAD019
:1036600000BF0E69C6F30346042EFADB0E6816602F
:10367000121D1E1FB3B2042BE7DA00BF4FF0E06645
:103680008E654FF080764E6500BF13E04FF0005618
:103690004E6200260E7000BF0E69C6F3C016002EE3
:1036A000FAD000BF0E69C6F30346012EFADB0E788E
:1036B00002F8016B1E00A3F10107BBB2E6D1402660
:1036C000394F3F1F3E60F0BDF0B504460D46002067
:1036D0004FF0402104268E6500BF4E154E624FF418
:1036E00040468E6200BF00BF4FF0E0668E650E035D
:1036F0004E6500BFCE034E620E044E6240262A4F36
:103700003E6013E04FF000564E6226680E6000BF28
:103710000E69C6F3C016002EFAD000BF0E69C6F3BC
:103720000346042EFADB2E1FB5B2241D042DE9DA60
:1037300000BF4FF0E0668E654FF080764E6500BFAB
:1037400011E04FF000564E6226780E7000BF0E69F1
:10375000C6F3C016002EFAD000BF0E69C6F30346AA
:10376000012EFADB641C2E00A5F10107BDB2E8D1E1
:1037700000BF4FF0E0668E654FF080664E6500BF7B
:1037800016E04FF000564E6216680E6000BF0E69DC
:10379000C6F3C016002EFAD000BF0E69C6F303466A
:1037A000042EFADB121D01E088A202401E1FB3B2F4
:1037B000042BE6DA00BF4FF0E0668E654FF08076AE
:1037C0004E6500BF11E04FF000564E6216780E7045
:1037D00000BF0E69C6F3C016002EFAD000BF0E69F6
:1037E000C6F30346012EFADB521C1E00A3F10107AB
:1037F000BBB2E8D14026014F3E60F0BD84A202403A
:1038000070B5002404F045FB0646760807E0601C0E
:10381000B6FBF0F55548854200D802E0641C102C38
:10382000F5D300BF204670BD70B54FF04024FFF7C0
:10383000E7FF0546102600BF40204D4908604D496E
:10384000C1F8A40200BF4A494039086002204A4931
:10385000486246F0010048624020464948624006FE
:1038600048620420A06500BFC00160624FF4404080
:10387000A06200BF00BF4FF47F40A06500206065DC
:1038800000BF206A20F4700000F5E000206225638C
:103890000815A0624000A0628000A062000460627F
:1038A0004000606200BF40F2FF30A06100BF032013
:1038B000A0658815606270BD00BF4FF400702D498F
:1038C000E43108602B49C1F8C40000BF2949A43184
:1038D000086000BF4020264908602649C1F8A402BC
:1038E00000BF23494039086000BF08202149E43166
:1038F00008602049C1F8C40000BF00BF10201D4966
:10390000E83108601B49C1F8A4001A49C4310860B5
:1039100000BF00BF20201749E43108601549C1F8F5
:10392000C40000BF704710B54FF400701149A831B2
:1039300008600C20FDF7B3FA4FF400700D49C1F890
:10394000A4000C20FDF7ABFA01200C49087010BD53
:1039500010B540F2C7300749D0310860FFF7ACFF1F
:10396000FFF762FFFFF7DFFF10BD0000404B4C0088
:10397000C4A2024000A0024000D002407800002013
:103980000020FB490880FB4908804FF48070FA4909
:1039900008807047F848008808B901207047002067
:1039A000FCE7F5480088B0F5807F01D10120704721
:1039B0000020FCE7F0B502460023EF4C2488A1422A
:1039C00006DC0846EC4C2488641AEB4D2C8005E09C
:1039D000E94C208821880024E74D2C8013E01C4608
:1039E0005D1CABB2155DE34C26882488641CE14F56
:1039F0003C80E24CA5553C462488B4F5807F02D13A
:103A000000243D462C800C00A1F10105A9B2E6D1AD
:103A1000F0BDF0B5034600200024D74D2D88C5F534
:103A20008075AAB2914206DC0846D34D2D880D441C
:103A3000D14E358005E0104611464FF48075CE4ECC
:103A4000358013E0CA4D2E882D886D1CC84F3D80EF
:103A5000CA4DAF5D2546661CB4B25F55C44D2D8876
:103A6000B5F5807F02D10025C14E35800D00A1F152
:103A70000106B1B2E6D1F0BDF8B50025002600245C
:103A800000BFBF480088401CBE49098890FBF1F286
:103A900001FB1200BA490880601C84B20846008805
:103AA00028B908460088401C0880601C84B2B548CC
:103AB0000088844202D14FF0FF350CE002236A46B1
:103AC000D901AF48008800F034FCBDF800004FF683
:103AD000FF718842D5D100BF681C08B9002601E0FB
:103AE000A74806883046F8BD70B504460025FFF7A4
:103AF000C3FF0646002E19DDA3480088401CA249DA
:103B00000880A248007884F80001A04800880012CC
:103B100084F801014FF4817221469948008800F031
:103B2000CBFB974800889949088001E04FF0FF35AA
:103B3000284670BD70B506460D4640E0FFF72AFFE7
:103B4000A8B39348007808B100BFFEE79148008809
:103B5000B0F5807F08D14FF480718F48FFF759FF8F
:103B60008D48FFF7C1FF22E08C480068401C8B495C
:103B700008604FF48173884A00218448008800F06F
:103B8000D8FB844A1288C2F5807291B2824A814B76
:103B90001B88D018FFF73DFF4FF481727E497B48A8
:103BA000008800F05EFB4FF480707A490880294657
:103BB0003046FFF7FFFE04462644281B85B2002D41
:103BC000BCD1744800887049098800EB01206A491B
:103BD0000988401A7249086008460068000971495E
:103BE00008606A4800887049C88061480088088079
:103BF000604800884880002070BD70B5FFF7D1FE96
:103C0000F0B94FF480716448FFF703FF0446C4F530
:103C10008071614A1019FF2209F020FA01234FF642
:103C2000FF7219025C48FDF7FEF905465A48A0F8F4
:103C300000514FF4817201465C48008800F011FB8E
:103C4000002070BD2DE9F04106460D4626E0FFF745
:103C5000A1FED8B14FF480714F48FFF7DAFE01237F
:103C60004FF6FF7219024C48FDF7DDF907464A4846
:103C7000A0F800714FF4817201464C48008800F0B2
:103C8000F0FA4A480088401C4849088029463046D6
:103C9000FFF790FE04462644281B85B2002DD6D19E
:103CA0000020BDE8F081F8B506460C4600253848EE
:103CB0000078B0B90120364908702D4800883C4989
:103CC00008802C48008848802B48008848812F486D
:103CD0000088C8802F48008888802C480088354993
:103CE00008802146304609F0C1F96FE0FFF759FE20
:103CF000002862D02548008800285DDD254800881E
:103D0000844212DA23480088001B81B223463246DF
:103D10001E48008800F00DFB1E480088001B1D494E
:103D20000880281985B2002450E01A4803883246DA
:103D300000211648008800F0FCFA16480088064466
:103D400014480088201A84B212480088284485B29A
:103D50004FF480700F49088002236A4601460B48E1
:103D6000008800F0E6FABDF80000084908802DE060
:103D7000480000204A0000205E000020B81C0020FF
:103D80004E0000205C000020500000205800002061
:103D9000520000204C000020B81D00206C000020C4
:103DA0006000002064000020C61E00205600002095
:103DB000BA1E00205A0000200AE021463046FFF7D4
:103DC00028FE284485B22E44601B84B2002C8DD17D
:103DD00000BF15B900209B4908702846F8BD9948D6
:103DE0000078B0B10020974908709748008897493B
:103DF00008809548408896490880934840899549AD
:103E000008809148C088944908808F4880889349E9
:103E100008800020704708B58A48007800283DD007
:103E200000208849087013E08D480088401E8C49A6
:103E3000088002236A46D9018A48008800F079FA8E
:103E40008848008800F0B2F9BDF800008549088074
:103E500081480088834909888842E5D17F480088E5
:103E60007F49098800EB01207A490988401A7E4978
:103E700008600846006800097C49086073480088AB
:103E80007B490880724800884880724800884881D1
:103E900071480088C880714800888880002008BD6B
:103EA0002DE9B04E87B00024002004900390834693
:103EB000824600250027019081464FF480706C49AE
:103EC000888066490880012421E0022302AAD901E2
:103ED000204600F02EFA0198401C80B20190BDF8F7
:103EE00008004FF6FF7188420ED0A144BDF80800CB
:103EF000A9EB00092D19BDF808003F1858480088A3
:103F000000F101005649088004F1010084B25948CB
:103F100000888442D9DB5049A1F800905649A1F8A5
:103F200000904F48008800024F490860084600682A
:103F300000094E490860002420E0022306AAD901A6
:103F4000204600F0F6F9BDF818004A490988884271
:103F500008DDBDF818004FF6FF71884202D001203D
:103F600004900FE0BDF818004FF6FF71884203D0AF
:103F70000BF101001FFA80FB601C84B23D480088F1
:103F80008442DADB00BF3448008806901AE002233E
:103F900005AAD901BDF8180000F0CBF90AF101001B
:103FA0001FFA80FABDF8140032490988884203DC00
:103FB00030480088824502DD0120039006E0BDF80C
:103FC00014000690BDF818000028E0D100BFD345CA
:103FD00003D1049808B9039880B104F0CBFE002007
:103FE0001D4908801E490880234908801E49086031
:103FF0001E49086000F015F904F0C9FE07B0BDE8DD
:10400000B08E00B5FFF7BCFC0020134908801449AE
:10401000088019490880144908601449086000BDE7
:1040200010B5FFF7ADFC04F0BFFE00F0B8F900F0EA
:10403000F1F96420FCF733FFFFF732FF04F0C0FE14
:10404000002010BD52000020BA1E002048000020B1
:104050004A0000205E000020580000204C00002094
:10406000500000205A000020600000206400002062
:10407000C61E00205C0000204E00002008B5022271
:104080006946D720FFF7ECF9BDF8000008BD10B570
:10409000F348007828B10020F14908707920FFF733
:1040A00065F9002010BD70B50025FFF7E7FF044655
:1040B000EC490C7004F03C001C280ED004F03C00CD
:1040C00024280AD0E848007800B100E00125E7483C
:1040D0000068401CE549086005E004F0800008B174
:1040E000012500E00025284670BD10B5DC480078A9
:1040F00028B90120DA490870AB20FFF737F9002012
:1041000010BD08B5FFF7F1FF00BFFFF7CCFF002897
:10411000FBD0042269469F20FFF7A2F900BFFFF7FA
:10412000C2FF0028FBD0FFF7B2FF009808BD10B512
:10413000FFF7B9FFFFF7ABFF002010BD10B5FFF789
:10414000B2FF08B1FFF7A3FF002010BD38B5044649
:104150002A208DF8000080208DF8010014B1012C78
:1041600008D103E0A6208DF8020003E0A7208DF817
:10417000020000BF00BFFFF7B8FF00BFFFF793FFCB
:104180000028FBD0FFF77AFFC5B205F03C002428D9
:1041900009D1032269463D20FFF7B0F900BFFFF7C0
:1041A00082FF0028FBD0FFF772FF38BD38B5044608
:1041B000C4F3C7108DF800006006000E8DF80100F2
:1041C00000208DF80200FFF790FF00BFFFF76BFFA4
:1041D0000028FBD0032269468120FFF78FF900BF3A
:1041E000FFF761FF0028FBD0FFF751FF002038BD2B
:1041F00038B5C72494208DF8000080208DF8010088
:104200009A208DF80200FFF770FF00BFFFF74BFF09
:104210000028FBD0032269462046FFF76FF90020F3
:1042200038BD38B5C72494208DF8000080208DF863
:1042300001009A208DF80200FFF757FF00BFFFF73B
:1042400032FF0028FBD0032269462046FFF756F9CB
:1042500000BFFFF728FF0028FBD0FFF718FF002062
:1042600038BDF8B504460D461646FFF73EFF00BFC1
:10427000FFF719FF0028FBD082208DF80000C4F35F
:10428000C7108DF801006006000E8DF802000020B6
:104290008DF8030033462A4604216846FFF714FAD6
:1042A0001E20FCF7FCFD00BFFFF7FDFE0028FBD041
:1042B000FFF7EDFE0020F8BDF8B504460D461646A2
:1042C000FFF713FF00BFFFF7EEFE0028FBD08420AE
:1042D0008DF8000000208DF801008DF802008DF8A7
:1042E000030033462A4604216846FFF7EDF900BF74
:1042F000FFF7D9FE0028FBD088208DF80000C4F31A
:10430000C7108DF801006006000E8DF80200002035
:104310008DF8030033462A4604216846FFF7D4F996
:1043200000BFFFF7C0FE0028FBD0FFF7B0FE002063
:10433000F8BD2DE9FC4104460D4616461F46FFF721
:10434000D4FE00BFFFF7AFFE0028FBD0D2208DF8CF
:104350000000C4F3C7108DF80100600040EA25207A
:10436000C0B28DF80200E8B28DF8030000208DF88D
:1043700004008DF805008DF806008DF807003B4617
:10438000324608216846FFF705F900BFFFF78BFEAC
:104390000028FBD0FFF77BFE0020BDE8FC8170B554
:1043A000FFF78AFAFFF740FAFFF7BDFAFFF7A9FE19
:1043B0000546C5F3072404F00700042810D1C00106
:1043C0002B49088080002B4908804FF4E0602A497F
:1043D00008802A490880084600882949088014E096
:1043E00004F00700052810D14FF4806020490880B0
:1043F0008000204908804FF470601F4908801F49E1
:104400000880084600881E4908800120FFF79EFEAC
:10441000002070BD70B5FFF74FFAFFF705FAFFF700
:1044200082FAFFF76EFE0546C5F3072404F0070085
:10443000042803D101200C4908700AE004F00700A9
:10444000052803D101200849087002E00020064930
:104450000870FFF74AFEFFF71AFE002070BD00004B
:10446000780000207E0000207900002080000020DD
:104470007C0000207A0000205C0000205400002016
:10448000560000205348008853490880534800884C
:10449000534908805348008853490880534800888E
:1044A0005349088070474C480088B0F5807F01D19F
:1044B000012070470020FCE7F0B5034600200024EF
:1044C000454D2D88C5F58075AAB2914206DC084697
:1044D000414D2D880D44404E358005E01046114673
:1044E0004FF480753C4E358013E03D4D2E882D886D
:1044F0006D1C3B4F3D803F4DAF5D2546661CB4B201
:104500005F55374D2D88B5F5807F02D10025344E9B
:1045100035800D00A1F10106B1B2E6D1F0BDF8B5CC
:1045200006460C4600252146304608F09FFD4BE02C
:10453000FFF7B9FF00283ED02B480088002839DD5E
:104540002B480088844212DA29480088001B81B277
:104550002346324624480088FFF7EBFE24480088B3
:10456000001B23490880281985B200242CE020482C
:104570000388324600211C480088FFF7DAFE1C48F9
:10458000008806441A480088201A84B21848008817
:10459000284485B24FF480701549088002236A468A
:1045A000014611480088FFF7C4FEBDF800000E491F
:1045B000088009E00AE021463046FFF77DFF2844E5
:1045C00085B22E44601B84B2002CB1D100BF2846B6
:1045D000F8BD00005E000020880000204800002098
:1045E0008A000020580000208C0000204C00002091
:1045F0008E000020B81C002010B580219E4808F0D5
:1046000035FD10BD10B500209C490880FFF7F4FF70
:1046100010BDF0B50446170202F1010C4FEA0C265A
:10462000B7FBF3FC1FFA8CF505F1010C1FFA8CF5B2
:10463000B6FBF3FC1FFA8CF000FB03FCB44503D27D
:1046400000F1010C1FFA8CF025800880F0BD2DE9E7
:10465000F74F84B0804614460598401E00FB04F9CD
:10466000C9F30F2509F0FF074FF0000A019469E034
:104670003819B0F5807F04DC26463446301B84B2FE
:1046800004E0C7F5807086B2A01B84B27C4909881B
:10469000294488B24FF480737A4A0021FFF749FE1B
:1046A00008EB0A01774AD019324608F060FC2A4626
:1046B00002A903A8019BFFF7ACFF11E06E48BDF80B
:1046C0000C1000EBE100007801F00701084100F058
:1046D000010000B90AE0BDF80C00401C80B2039054
:1046E000BDF80C00BDF808108842E7DD00BFBDF83A
:1046F0000C00BDF80810884214DD01234FF6FF724C
:1047000019026048FCF78FFC83465E48A0F800B1B0
:104710005B490988294488B24FF481725949FFF7EF
:10472000A0FD08E056490988294488B24FF48072F8
:104730005449FFF796FD681C85B200270AEB060076
:104740001FFA80FA002C93D1002007B0BDE8F08F4B
:104750002DE9F0414C48878AFDB23C0A55B34848E0
:10476000008820444949088045490988214488B285
:104770004FF48073434A0021FFF7DBFDC5F58071DC
:10478000404A5019FF2208F069FC01234FF6FF72DE
:1047900019023C48FCF747FC06463A48A0F800617D
:1047A00037490988214488B24FF481723549FFF7AF
:1047B00058FD05E0324800882044401E33490880F7
:1047C000BDE8F08110B5FFF717FF10BD2DE9F041EE
:1047D00000252D48848A4FF6FF762948078816E081
:1047E000FF2C02D94FF4807500E0254638467A1C2C
:1047F00097B24FF48073264A0021FFF79AFDA9B2C1
:10480000002332462248FCF70EFC0646641B002CAF
:10481000E6D10123324600210846FCF704FC064697
:104820003046BDE8F08110B5FFF792FFFFF7CEFFED
:10483000184908801448C0890988884218D110484E
:1048400000881549886011480088C8600846FDF74F
:1048500029FD04F0B3F9012080F3108800BF08F0AF
:10486000D7F84FF0005008F0DEF8FBF7DBFC01E072
:10487000FFF7A8FF10BD0000D21E00209A00002004
:1048800054000020B81D0020101A002098000020BD
:10489000521F00209C00002098190020022045494A
:1048A0004870182008700120087188700320C870B3
:1048B00070470146C1F347103F4A10701046007818
:1048C000704710B53B4804F0B1FB3A498868FFF7E0
:1048D000F0FF10BD10B5012038494863C00248629E
:1048E00000BF4FF47060364988610020486100BF06
:1048F0000846006B20F07C007C3008630846006BA3
:1049000020F4F84000F5F84008630846006B20F4F6
:10491000F80000F5F80008630846006B20F0F84046
:1049200000F1F84008630846006A20F07C007C3003
:1049300008620846006A20F4F84000F5F840086272
:104940000846006A20F4F80000F5F80008620846FE
:10495000006A20F0F84000F1F840086200BFC02073
:1049600088604020486000BF4002486000BF154892
:1049700088604FF44030486000BF00BF800388610A
:104980004804486100BF00210D4806F005FA4FF4C5
:1049900080500B4988600120886500221146084834
:1049A00005F0DAFF4FF48030054948614000486166
:1049B00010BD0000542000209E00002000D00240C6
:1049C00000A001400000FF0710B504F0FDFC10BD81
:1049D00010B504F014FD10BD00BF08209649086012
:1049E0009649C1F8A40200BF934940390860704756
:1049F00000BF0820904908609049C1F8A40200BF98
:104A00008D493C390860704710B5044601208C4937
:104A1000087008464472022008720420887201203F
:104A2000C87203200873012048738873C873087420
:104A3000084604F04AFD10BD70B505468148057072
:104A4000814845714AF201034FF6FF720621FCF7D7
:104A500059FB04462046E11704EB1161090A7A4A22
:104A60009171E11704EB11610912A4EB0121D171DD
:104A700000207649087008227349022004F07DFC6A
:104A80007048007872490870012070BD70B5054605
:104A90000E2D38D2DFE805F0370708090A310B324E
:104AA0000C0D330E343500BF00BF00BF00BF00BF88
:104AB00000BF00BF681E674948714AF201034FF604
:104AC000FF7206216348FCF71DFB04462046E117F0
:104AD00004EB1161090A5F4A9171E11704EB11615E
:104AE0000912A4EB0121D171002058490870082255
:104AF0005849022004F041FC05E000BF00BF00BFA0
:104B000000BF002070BD00BF04F0C9FC04F0B0FC81
:104B10002846FFF779FF0120F4E710B54AF20103B8
:104B20004FF6FF7206214A48FCF7ECFA044620468D
:104B3000E11704EB1161090A454A9171E11704EB91
:104B400011610912A4EB0121D17101203F490870C4
:104B500004F08EFC08223E49022004F00EFC05F011
:104B6000B6F8002010BD2DE9F04105460E464AF288
:104B700001034FF6FF7231462846FCF7C3FA04469C
:104B8000E21704EB12621312AA1D304F3F78D25D78
:104B900093420ED1E21704EB12621212A4EB02232D
:104BA000EA1D2A4F3F78D25D934202D10120BDE831
:104BB000F0810020FBE710B5044627482749097813
:104BC00044542648007868B9234800781D4909787C
:104BD000884205D121480078401C2049087006E031
:104BE000002010BD1D480078401C1C490870174863
:104BF000007808301949097888420ADC00201749F2
:104C0000087012480078801DC1B21348FFF7ABFF4F
:104C1000E7E70220E5E780201149486370478020DC
:104C20000F498863704700200C4908700A4800212A
:104C30000160416070470000C4A2024000A0024031
:104C400060200020A0000020A90000209F0000207C
:104C5000A1000020B100002074200020B900002035
:104C6000008004402DE9F04104460D461646012718
:104C7000208820B1182808D01D287DD119E079E0BE
:104C800000BF00271820208000BF0FB1B02D02D038
:104C90000120BDE8F08100BF03F060FC00BF41F6D9
:104CA00002313848FBF7A8FE00BF00271D202080F6
:104CB00000BF27B1882D02D13248864201D00120A1
:104CC000E7E700BF30480078401C2F4908700846CD
:104CD00000780A2807D100202C4908700022B22150
:104CE0001046FCF746F803F0EBFC0028D7D1254826
:104CF000FBF7C7FE264890F8230048BB22480078FF
:104D00001E2809DB0320224981F823000022A32169
:104D10001046FCF72EF828E01B480078142809DB21
:104D200002201B4981F823000022A2211046FCF733
:104D300020F81AE0144800780A2816DB01201449EC
:104D400081F823000022A1211046FCF712F80CE0A4
:104D50000D4800780A2808DB00200D4981F823005F
:104D60000022A0211046FCF704F800200649087034
:104D700003F0CCFB84E7FFE700270020208003201E
:104D800087E7000080200020BC0000200C130020DA
:104D9000D81900202DE9F04105460C46164601279A
:104DA000288810B11E2872D107E004F02FF85CE1CA
:104DB00000BF00271E20288000BF17B90120BDE8D2
:104DC000F08100BFAE4890F8230000286FD1A02CDE
:104DD00007D103F08BFF0020AA490870AA48FBF70F
:104DE00050FEB22C04D140F62231A748FBF704FE56
:104DF000882CDCD1A4488642D9D1A4480078401C34
:104E0000A249087008460078642801DB4620087033
:104E100003F06CFF9C48FBF7FAFD9D4800881E28B4
:104E20001ADB9A49087800EBD0714910A0EB4101D8
:104E300021B903F0B9FF03F0CFFF16E193490878D9
:104E400000EBD0714910A0EB41010129AFD103F073
:104E5000B7FF03F0CEFF08E18D480088142817DB68
:104E60008A49087800EBD0714910A0EB410111B9D3
:104E700003F080FFF9E08549087800EBD071491014
:104E8000A0EB4101012992D103F081FFEDE0EDE0BB
:104E90007F4800880A2817DB7C49087800EBD0712E
:104EA0004910A0EB410119B903F07EFFDDE00FE0EE
:104EB0007649087800EBD0714910A0EB4101012937
:104EC000BBD103F07DFFD0E06F48FBF7DAFDCCE00B
:104ED0006B4890F823000028AFD0B22C0DD103F01E
:104EE00005FF40F6CC416848FBF786FD0120654987
:104EF0000870002065490870B7E0A12C0AD103F0C2
:104F0000F5FE00206149087040F266615E48FBF7DB
:104F100073FDAAE0A22C0AD103F0E8FE00205B4951
:104F2000087043F233315848FBF766FD9DE0A32C2F
:104F300008D103F0DBFE0020544908705248FBF70B
:104F4000A0FD92E0882C18D14F48864215D14D48DB
:104F5000007801281ED14D480078401C4B4908704C
:104F60004948FBF754FD4949087800EBD0714910D6
:104F7000A0EB410111B903F02FFF76E04349087817
:104F800000EBD0714910A0EB410101296DD103F074
:104F900030FF6AE03A4890F82300012834D103F04A
:104FA000A5FE3A480078401C384908700846007849
:104FB000042803DB3448FBF764FD56E03248FBF776
:104FC00026FD32480078032190FBF1F201FB12002C
:104FD000012802D103F0CEFE47E02C4800780321DF
:104FE00090FBF1F201FB1200022802D103F0DCFE7B
:104FF0003BE026480078032190FBF1F201FB120010
:1050000040BB03F0E9FE30E01D4890F82300022881
:105010002BD103F06BFE1D480078401C1B49087023
:105020001948FBF7F4FC19480078032190FBF1F2D2
:1050300001FB1200012802D103F09CFE15E0134889
:105040000078032190FBF1F201FB1200022802D14B
:1050500003F0AAFE09E00D480078032190FBF1F26D
:1050600001FB120008B903F0B7FEA1E600270020FB
:1050700028800320A3E610B50348FBF702FD10BD0E
:10508000D8190020D100002090200020D00000205E
:10509000BC000020812807D1FE4991F85010491C1E
:1050A000FC4A82F8501021E089281FD1FA49098969
:1050B000F84A92F85020F74B23F82210F64991F85D
:1050C00013111A4692F8502003EB82029170F249B4
:1050D000097C1A4692F8502003EB8202D1701946DF
:1050E00091F85010491C1A4682F8501070472DE96B
:1050F000F84F0446042C5AD1E748807B4FEA101B36
:10510000E548807B00F00F07E34890F80E01401E51
:10511000C0B20090BBF1000F48D13A46DE480F30D4
:10512000009906F0CAFB804607F00F00DB49887340
:10513000012081F80E014FF000094FF0000A00260F
:1051400000252CE005EBC50000EB400008EB40001B
:1051500000F1210A05EBC50000EB400008EB400020
:1051600090F83560CD490F3101EB090032465146C8
:1051700007F0FDFEC94890F80E013044C74981F898
:105180000E0109EB060000F0FF0905EBC50101EB7C
:10519000410108EB410006F055FC681CC5B2BD4258
:1051A000D0DBFCF7E6FB01F000FB00BFCFE0052CF5
:1051B000FCD00B2C35D1B848B0F80F50B8488583D7
:1051C00005F0010018BBFFF75DF90020B449486104
:1051D000B44800680861B34800680521B0FBF1F2EB
:1051E00001FB120030B9AF480068B0FBF1F0AC49E8
:1051F000886107E0AB4800680521B0FBF1F0401C76
:10520000A7498861FCF739FC01F0CFFA08E005F006
:105210000500052804D10022E521A348FBF7A9FDDC
:1052200095E08C2C30D19C48D0F80E609C484069A9
:10523000B0421BD19A48406999498969884203D193
:105240009AA0FBF7D1FE1CE0002095490884924803
:10525000458A0846C58305F0010028B90022E521EA
:105260009148FBF786FD00E000BF0AE08C48008C07
:10527000401C8B4908840846008C032801DA01F0A1
:1052800094FA01F0E8F962E00D2C16D18D488249BC
:105290000E310A6802604A684260098901817E48CD
:1052A000008B884948817C48408B88817A48808B74
:1052B000C8817948C08B088249E00E2C47D18148CB
:1052C000007C00F00100E8B37348C5897E4800EB1C
:1052D000E500007805F00701084100F0010090BBEF
:1052E000794800EBE500007805F0070201219140C4
:1052F0000843754901EBE5010870674890F80E0115
:10530000801E7049C8820846808AC98A08446D494F
:1053100088820846408A401C488208464089A84244
:1053200002D16AA0FBF760FE6648828929465A4886
:105330001030FFF78CF9634840896249498A8842F6
:1053400004D101E003E001E0FFF76DFA00BFBDE822
:10535000F88F2DE9F05F06460F466049B6EB01086D
:1053600067F5A37942464B465DA0FBF73DFE6348D7
:1053700080794FF47A71A0FB01A052460346404663
:10538000494607F057FB14461D465C4880794FF4A8
:105390007A714843C217014610460A1B60EB0501AB
:1053A00056480089FA235843141841EBE075224609
:1053B0002B4653A0FBF718FE504880794FF47A71C2
:1053C0004843C217201A75EB020103D22146DD20A3
:1053D00001F0E2F9BDE8F09F2DE9F05F06460F46C7
:1053E0003E49B6EB010A67F5A37B4E48C08A4FF4ED
:1053F0007A71A0FB0180424603465046594607F0A9
:1054000019FB14461D464FF47A710020091BA84170
:105410001DD24448C08A4FF47A714843C117041B17
:1054200061EB05050020D4F16401A8410FD23D488D
:10543000C08A4FF4FA614843C117201A75EB010086
:1054400005D200F096FD2146DA2000F0D7FBBDE83A
:10545000F09F2DE9F04705460E46144602F015FC74
:105460000F49496B401A4FEA50192A1946F10000BA
:1054700012EB090740F100083846414602F05BFC98
:1054800038464146FFF7A8FF1C48007902284ED154
:10549000384649E03021002000170020EC1500209C
:1054A000D819002064000020140100206461746198
:1054B00020646F776E6C6F616420646F6E6521216C
:1054C00021200A00101A0020D21E002074686520D6
:1054D0006C6173742070696563650000001468A5D1
:1054E0007472616E736D697420656C6C6170736544
:1054F000203D20256C6C64200A000000881C0020E0
:105500007472616E736D69742072656D61696E6924
:105510006E67206D696C73203D20256C6C64200AD9
:1055200000000000981900204146FFF712FFBDE877
:10553000F0872DE9FF5F0446102C50D1FD48058906
:10554000817BC07B01EB002086B2FB480088A8422B
:1055500044D1F9484088B04240D101F0E2FF002137
:10556000CB2001F019F9F348077C90F81180807C7A
:105570000390F048C07C029007F0070908F0010A88
:10558000B9F1020F26D1BAF1000F23D0EBA0FBF73F
:105590002BFD002100910191E64841690091008BAB
:1055A000ADF80400DDE9001080B2CDE90010E1485B
:1055B000B0F81AB00022DDE900105140504001431C
:1055C00007D0DD48A0F808B03022DDE90001FFF780
:1055D00040FF02E0E0A0FBF707FD00BF00BFBDE811
:1055E000FF9F2DE9F0410446922C24D1D148857BC0
:1055F000C17BC07B01EB002086B2C6F34017DF48B9
:1056000090F82200A84215D10120DC49887001F0F1
:105610007EFF0020D949C860488117B1FEF7FBFB27
:1056200001E0FEF7DCFB0420D44948700021C820CB
:1056300001F0B2F800BFBDE8F0812DE9FC47054656
:10564000922D4FD1BB48867BC47BC4F34017C4F373
:105650004008C4F380194FEAD41AC84890F82200D1
:10566000B04237D1C6A0FBF7BFFC0120C349887008
:1056700001F04DFF0020C149C8604881B7B1B8F1C1
:10568000000F0ED0B9F1000F0BD0AA4801690091AC
:10569000808AADF804002A22DDE90001FFF7D9FE77
:1056A00000BF0021C92001F077F81AE0FCF7FCF8F0
:1056B000BAF1000F03D00420B049487005E0012082
:1056C000AE4948700020B24908710021C82001F09D
:1056D00063F806E0A94890F822103246ADA0FBF727
:1056E00083FC00BFBDE8FC872DE9F0470646912EFC
:1056F00060D19048047C90F81190857C04F00700FC
:10570000A3490870C4F3C0004870C4F30210887045
:1057100005F001000871C5F340004871C5F3800031
:105720008871C5F3C000C871C5F3001008728148C4
:10573000C01DC2680A61008A88827E48B0F81900DC
:1057400008837D4880F8069004F007007A490871C4
:10575000C4F3C00048717748B0F8190008818C483C
:105760000079F8B19AA0FBF73FFCFBF7C8FB01F00A
:10577000CEFE71480088814988806F484088C88083
:105780008348407930B182483022D0E904713846EC
:10579000FFF75FFE0420794948700021C82000F01F
:1057A000FBFF06E08FA0FBF71FFC0021DC2000F0D0
:1057B00025FA00BFBDE8F0872DE9F0410446102C22
:1057C0005AD1904890F8F0000A2801DBBDE8F0813A
:1057D0005848817BC07B01EB00201FFA80F85548B8
:1057E000057C867CC77C0089864991F8F01001EB26
:1057F0004101844A22F83100104690F8F00000EB95
:105800004000114601EBC000A0F80280084690F865
:10581000F00000EB400001EBC0008580084690F8E6
:10582000F00000EB400001EBC0008671084690F8E4
:10583000F00000EB400001EBC000C7713D4890F85C
:10584000120191F8F01001EB410102EBC101087265
:1058500002F091FA6B4A92F8F02002EB4202694B97
:1058600003EBC202C2E90401184690F8F000401CA4
:10587000194681F8F00000BF00BFA7E72DE9F0410D
:105880000646912E55D1604991F840110A2901DB55
:10589000BDE8F0815D4A916988472649CF890D7C32
:1058A00091F811808C7C05F00701574A92F840214D
:1058B000554B03EB42121170C5F3C0011A4692F822
:1058C000402103EB42125170C5F302111A4692F8BF
:1058D000402103EB42129170194691F840111A468B
:1058E00002EB411181F8038004F0010192F840219C
:1058F00003EB42121171C4F340011A4692F84021A1
:1059000003EB42125171C4F380011A4692F8402110
:1059100003EB42129171C4F3C0011A4692F8402180
:1059200003EB4212D171C4F300111A4692F84021E0
:105930006EE0A4E000170020881C002066617468F7
:105940006572206861732073796E6368726F6E652B
:105950002074696D65200A0066617468657220684C
:105960006173206E6F74207379736E6368726F6EEB
:10597000652074696D65200A00000000D8190020B8
:1059800072656365697665642061636B200A000057
:10599000201B002074686520736571206E756D2072
:1059A000697320646966666572656E742C20637520
:1059B0007272656E74206973202564202C207265D4
:1059C0006365697665642069732025640A000000B8
:1059D000616C6C6F77206A6F696E206E65742C2025
:1059E000000000006E6F7420616C6C6F776564203E
:1059F000746F206A6F696E206E65742E2E2E200AD9
:105A000000000000281A0020401B0020941C0020E9
:105A100003EB42121172194691F840111A4602EB3B
:105A200041126649CB681361098A9182644991F8F1
:105A30004011634A02EB41126049C91FB1F81910C5
:105A400011835F4991F840115D4A02EB411188765C
:105A50005A49C91F098992F84021594B03EB421258
:105A60009183194691F840111A4602EB4111CF83F8
:105A7000114691F84011491C82F8401100BF00BF47
:105A800006E710B54D48C01FC47A4E4841784EA075
:105A9000FBF7AAFA4B484078092826D2DFE800F045
:105AA0002505090D1115191D21002046FFF7E6FEF9
:105AB0001CE02046FFF780FE18E02046FFF714FEAA
:105AC00014E02046FFF7B9FD10E02046FFF789FDFE
:105AD0000CE02046FFF72DFD08E02046FFF707FB0E
