:020000040000FA
:10000000004000200D9B0000BF020000C302000062
:10001000D3020000D7020000DB0200000000000055
:100020000000000000000000000000001F9B000016
:10003000219B000000000000239B0000BD02000087
:10004000E5030000299B00002B9B0000DF0200005D
:100050002F9B0000319B0000339B0000359B00006C
:10006000379B0000399B00003B9B00003D9B00003C
:100070003F9B0000419B0000439B0000459B00000C
:10008000479B0000499B00004B9B00004D9B0000DC
:100090004F9B0000519B0000539B0000559B0000AC
:1000A000579B0000090400005B9B00005D9B000063
:1000B0005F9B0000619B0000639B0000659B00004C
:1000C000679B0000699B00006B9B00006D9B00001C
:1000D0006F9B000049030000739B0000759B0000AC
:1000E000779B00004D0300007B9B00007D9B000080
:1000F00000F002F800F068F80AA090E8000C8244D2
:100100008344AAF10107DA4501D100F05DF8AFF2AE
:10011000090EBAE80F0013F0010F18BFFB1A43F0E5
:100120000103184784D70000A4D7000010F8013B52
:100130000A4413F0030408BF10F8014B1D1108BF57
:1001400010F8015B641E05D010F8016B641E01F805
:10015000016BF9D1002D15D010F8014B03F00C0301
:100160000C2BA1EB04040ABF10F8013BA4EB831491
:10017000A4EB032405F1010314F8016B5B1E01F8E5
:10018000016BF9D5914238BF10F8013BD1D37047CC
:100190000023002400250026103A28BF78C1FBD890
:1001A000520728BF30C148BF0B60704764290CF06C
:1001B0006D8078290CF0A680002070471FB50CF0E8
:1001C0007EF91FBD10B510BDDFF80CD0FFF7F6FFAC
:1001D00000F042F80CF03EFB0040002003B4FFF7B3
:1001E000F1FF03BC09F087FC40BA7047C0BA704702
:1001F00002B401B44FF0010100FB01F0A0F10100D5
:100200000138A0F100000028FAD101BC02BC7047FF
:1002100040BA7047C0BA70474FF00050D0F800D0D5
:10022000D0F804F00B49D1F800C04A685CF8043BF0
:100230001068184442F8040B8C4528BFA1F1DC0C6F
:100240008A4228BFA1F1DC02C1F800C04A6020F058
:10025000004070474428002000F052F902F040F8B6
:1002600003F079F801F016FA00F0CFFC00210E48F7
:1002700000F0A5FC0D4800F0A1FA0022A1210C48D5
:1002800000F05FFD07F07BFE08F069FB094807F00E
:100290000AFB08E000BF00F03DFD0028FBDC08F091
:1002A00066FB00F01FFAF5E718000020E8D6000012
:1002B00000010020801DA45400BFFEE77047FFF737
:1002C000FBFF7448006800F0010000B100BEFFF7BA
:1002D000F3FFFFF7F1FFFFF7EFFFFFF7EDFF10B5BB
:1002E0006D4800696C490968C1F30061084038B184
:1002F00001206949886169480068401C67490860B5
:1003000065480069C0F3400063490968C1F3406172
:100310000840C0B102206049886107F066FA604970
:10032000086000F080FB58B100F084FB5C4909686C
:10033000884205D85BA00BF075FF00F085FA02E05B
:100340005EA00BF06FFF10BD00BFFEE770B5292067
:1003500000F01F0201219140604A430942F8231036
:1003600000BF00F08EF800BF01205D4988600520C5
:10037000886200BF0846006AC0F34000D8B1084652
:10038000006E84B257480068C0F380055548B03805
:10039000D0F8F00100F001063DB104F0080020B9EA
:1003A0000022B021504800F0FAFB26B104F480503E
:1003B00008B900F0CBF8292000F063F800BF012055
:1003C000474988600520886200BF292000F01F028D
:1003D000012191404209920002F1E022C2F800118D
:1003E00000BF70BD41480069C0F380003F49096803
:1003F000084040B100BFA5203C490863F1200863D4
:100400000420886100BF704710B53548006CC0F308
:10041000C01040B100BF01203149886005208862CA
:1004200000BF802088633248006BC0F3804008B171
:100430002F48006B2E48006BC0F3C000B8B12C48A9
:10044000006BC0F3801090B10820294988632848C8
:1004500070300078274908702748808E132806D10D
:1004600080201F4948632348007804F06DFB204832
:10047000006EC0F3406018B14FF000701C498866F0
:1004800010BD00F01F02012191401C4A430942F8AF
:1004900023107047F0ED00E00090024004000020BF
:1004A00000000020616C61726D3120696E746572AC
:1004B000727570742E2E2E200A0000006574696D0E
:1004C0006572206E6F74207265717565737420702B
:1004D0006F6C6C2E2E2E200A0000000080E100E0E0
:1004E00000800440B0A00240CC0000200000034087
:1004F000001000400C000020C019002080E200E045
:1005000010B507F0FBFC07F01BFE07F065FE07F0D7
:1005100009FD1A2007F0B5FD07F0C9FD08F0AAF99A
:1005200003F0DFFD04F014F804F0D2F807F0F5F85A
:1005300007F0C7FD07F016FD08F02CFB04F014FAD5
:1005400008F015FA08F08EF910BD000038B50A253C
:1005500008F049F96946122002F075FE9DF8004046
:1005600000BF9DF80010122002F065FE69461220BF
:1005700002F069FE2846691ECDB29DF80010C1F355
:10058000801108400028ECD104F0080070B10F4938
:100590008868804700BF4FF400700D4908600D491E
:1005A000C1F8A40200BF0A494039086004F04000C5
:1005B00028B101F066FE07F050F90749486304F0DE
:1005C000040010B105A00BF02DFE38BD241D002045
:1005D000C4A2024000A00240001A0020434144206F
:1005E000444F4E452048415050454E4544200A0056
:1005F00000206A49C870087148718871C871087212
:1006000048720870704700206449C87008714871CA
:100610008871C8710872487201200870704710B55F
:100620005F494869804707F08FFF10BD10B503F0A0
:10063000EAFD07F0C0FF10BD10B507F0A6FE08F0F8
:1006400096F908F00FF900BF01205649886005208F
:10065000886200BF00204FF0E0210861012052496C
:10066000486604205149086000F062FB00B105E0D3
:10067000BFF34F8FBFF36F8F30BF00BF00BF0120AC
:100680004B4908604A49E439C1F8C40000BF4849F1
:100690004039086008F063F908F0A5F803F079F92B
:1006A00007F025FE4348808E0E2805D04148808EF5
:1006B0001F2801D007F0E7FE07F054FD10BD70B50C
:1006C000002407F092F8054600F0ADF938B100F0CB
:1006D000B1F9401BB0F5A07F01D2012400E0002455
:1006E000204670BD10B5FFF7EAFF00B110BD3248DB
:1006F00090F82700022804D02F4890F827000328FC
:1007000000D1F3E700F014FB00B1EFE723480078D5
:10071000002840D02148C07898B907F09CFE2548B1
:10072000808E032807D02348808E0E2803D02148CE
:10073000808E1F280FD14FF4C0701D493C390860CE
:1007400009E01C48808E0E2805D01A48808E1F288C
:1007500001D007F098FE1148007908B907F0ADFE06
:100760000E48407908B907F0DEFE0C48807908B9D8
:1007700007F0B9FE0948C07908B9FFF750FF0748EC
:10078000007A08B9FFF752FF0448407A08B907F029
:1007900094FCFFF751FF00BFA8E7000030130020D2
:1007A000241D00200080044000D0024010ED00E035
:1007B000E4A00240C0190020001A002070B50446D1
:1007C000002505E054F82500002100F0F8F96D1C23
:1007D00054F825000028F5D170BD70B504460025F9
:1007E00004E054F8250000F008FA6D1C54F82500C8
:1007F0000028F6D170BD000070B5A548006818B992
:100800000020A44908601EE000F021FB0546A04836
:100810000468D4E900010844461BA4680AE0D4E94E
:1008200000010844401BB04203D2D4E9000108444F
:10083000461BA468002CF2D1A81996490860084606
:10084000006806F0DFFF70BD10B5934800F0ABFA0A
:1008500010BD2DE9F04705460E4690464FF0010ABF
:10086000288810B161285FD109E00020884908601C
:1008700059E000BF4FF0000A6120288000BFBAF1A4
:10088000000F02D10120BDE8F08700BF872E23D1E1
:10089000C14604E07E48006880687D4908607C4865
:1008A000006820B17A480068C0684845F2D07848AE
:1008B000006870B17648046808E0A068C0684845E0
:1008C00003D1A0688068A06000E0A468A068002848
:1008D000F3D1FFF791FF26E0822E00D023E000BF86
:1008E00000276B4804681BE0204600F095FAA8B189
:1008F00022468821E06800F024FA68B90020E06010
:1009000017B1A068B86002E06149A06808600020E3
:10091000A060FFF771FFE3E7FFF796FF2746A468A3
:10092000002CE1D100BFA4E74FF0000A002028808E
:100930000320A8E770B50446FFF786FFE06868B1BA
:100940005348056808E0A54205D154480068E060B6
:10095000FFF752FF70BDAD68002DF4D14F4800681D
:10096000E0604B480068A06049480460FFF744FF1E
:1009700000BFEFE770B504460D4600F083F8064669
:10098000012000F082F82946204600F031FA204686
:10099000FFF7D0FF304600F078F870BD70B5044620
:1009A00000F070F80546012000F06FF8204600F0D6
:1009B00028FA2046FFF7BEFF284600F066F870BD13
:1009C00070B5044600F05EF80546012000F05DF8C1
:1009D000204600F01BFA2046FFF7ACFF284600F047
:1009E00054F870BD70B504460D4600F04BF806464D
:1009F000012000F04AF8206828442060FFF7FCFE40
:100A0000304600F042F870BD0146C86808B90120C0
:100A100070470020FCE70146D1E90002104470470E
:100A20000146086870471A48006808B101207047FD
:100A30000020FCE700B5FFF7F6FF10B1154800688D
:100A400000BD0020FCE770B50546114800688542EE
:100A500007D10F48006880680D490860FFF7CCFE99
:100A60000CE00B48046800E0A46814B1A068A84238
:100A7000FAD11CB1A868A060FFF7BEFE0020A860F4
:100A8000E86070BDEFF31080704780F31088704706
:100A90001000002014000020180000202C0000206E
:100AA000C7480078C6490978491CC54A1170704783
:100AB0000146887B08B1012070470020FCE72DE942
:100AC000F04104460E46BF480768BF48056800E08D
:100AD0002D68A54201D0002DFAD10DB9BDE8F081F5
:100AE0002046FFF7E5FFD0B10020A073B6480568A7
:100AF00007E0AC4204D022468721284600F02AF8BD
:100B00002D68002DF5D1A06848B1B44207D0AD489A
:100B100004600022832104F10C00A3689847AA48CE
:100B20000068844205D1A84800680068A6490860AA
:100B30000CE0A548056806E02868A04202D12068BC
:100B4000286002E02D68002DF6D100BF9D480760A7
:100B500000BFC3E72DE9F04104460E461746A07BCF
:100B600000F00100C8B1A068B8B196480460022046
:100B7000A0733A46314604F10C00A3689847054635
:100B8000022D03D0032D01D0832E04D1214620460F
:100B9000FFF795FF01E00120A073BDE8F0812DE98A
:100BA000F04104460D4616468648076832462946F7
:100BB0002046FFF7CFFF83480760BDE8F08170B59E
:100BC00004460E468048056800E02D68A54201D025
:100BD000002DFAD1A54200D170BD7B48006820608D
:100BE000794804600120A0730020A0813246812151
:100BF0002046FFF7D4FF00BFEEE710B5044671486A
:100C000001682046FFF75BFF10BD8A206C49087021
:100C100000206E4908706E4908706B490860694988
:100C20000860704710B500206A490870664804687B
:100C30000BE0E07B40B10120A0730020E0730022B4
:100C400082212046FFF786FF2468002CF1D110BDD9
:100C500010B55F48007800285BDD5C48007800EB49
:100C600040005D4911F820005C4908705748007841
:100C700000EB4000584901EB80004068584908608B
:100C80005248007800EB4000534901EB8000806837
:100C9000544908604D490978481CC11700EBD161DF
:100CA0004911A0EB4111494A117049480078401E92
:100CB000474908704B480068D8B9434800684A491A
:100CC000086011E04348007808B1FFF7ABFF4448E3
:100CD00002684248017844480068FFF73BFF4248F9
:100CE00000680068404908603F4800680028E9D172
:100CF0000FE03A480078812803D10120394909687A
:100D00008873374802683548017836480068FFF72D
:100D100021FF10BD10B52F48007808B1FFF782FF02
:100D2000FFF796FF2A4800782A490978084410BD41
:100D300027480078274909780844704724480078F4
:100D4000704730B5034622480078202801D10120A1
:100D500030BD1E4C24781E4D2D782C44E0B2C417B3
:100D600000EBD4646411A0EB4414204D2C70284691
:100D7000007800EB4000184C04F82010284600785A
:100D800000EB400004EB800042602846007800EB56
:100D9000400004EB800083600D480078401C0C4C40
:100DA00020700020D4E748B1817B012902D0817BEB
:100DB000022903D10121C173064A11707047000056
:100DC000300000202C0000202800002032000020ED
:100DD00031000020330000203C13002034000020AC
:100DE000380000203C00002040000020440000208B
:100DF00070B504460D46656000F029F82138206082
:100E000070BDD0E9001211440160704710B504466E
:100E100000F01DF8206010BD70B5044600F017F812
:100E20002168401A451C6068A84201D2012070BDAB
:100E30000020FCE710B5044600F009F8D4E90012E0
:100E40001144081A10BD10B506F0D0FD10BD10B544
:100E500006F0CBFC10BD10B504462046FFF7C8F9DC
:100E600010BD70B50446002504E04FF47A70FFF71A
:100E7000F2FF6D1CA542F8D370BD70B504464FF467
:100E80007A7004FB00F6022C09DDFFF7CBF9A6F619
:100E9000B831B0FBF1F201FB120000F5FA752846FB
:100EA00070BD000070B504460D46002606E03046D1
:100EB000721C96B2215C39A00BF0B4F92800A5F1A0
:100EC00001018DB2F3D137A00BF0ACF970BD2DE963
:100ED000F04F8FB006F02EFD04460D464FF4004251
:100EE0000023204629460BF025F9039004A8039916
:100EF00000F0C8FA0898C0B20E900798C0B20D90E2
:100F00000698C6B2059800F0FF09049800F0FF0AA1
:100F100047F6FF7304EA030100204FF47A73844616
:100F2000A1FB037E00FB03E001FB0C014FF4004238
:100F3000002338460BF0FEF81FFA80FB33468DE89D
:100F4000000E19A0DDE90D210BF06CF90FB0BDE822
:100F5000F08F2DE9F041044606F08CFC07460BF0BB
:100F600099FAFFF75FF985B295FBF4F004FB105096
:100F700086B23046BDE8F0812DE9F041044606F026
:100F800079FC07460BF086FAFFF74CF90546B5FBEE
:100F9000F4F004FB10563046BDE8F08125302E32C7
:100FA000582000000A00000063757272656E74209C
:100FB00074696D6520697320253032642D253032C7
:100FC0006420253032643A253032643A2530326468
:100FD0002E253033640A000070B541F29D044FF0B5
:100FE00000552246034928460BF0E9FA70BD024934
:100FF000086070479202002008ED00E07047000092
:10100000323031363131313631300246D0B24140A2
:1010100081EA0110C1B2080240EA222080EA2110D0
:1010200080EAC10070472DE9F04304460D4616469C
:10103000304600222DE014F802808027002122E0B3
:1010400000F40049B9F1000F02D04FF0010C01E0AB
:101050004FF0000C4FF6FF7909EA400008EA070953
:10106000B9F1000F03D000F101091FFA89F0BCF1BA
:10107000000F03D041F2210980EA09007F1001F13D
:10108000010909F0FF010829DADB02F101091FFA61
:1010900089F2AA42CFDBE3B1002118E000F4004955
:1010A000B9F1000F02D04FF0010C01E04FF0000C3D
:1010B0004FF6FF7909EA4000BCF1000F03D041F27E
:1010C000210980EA090001F1010909F0FF01102955
:1010D000E4DBBDE8F08370B503460024594000BF4F
:1010E0000CE0084601EBD0767610A1EB4606F5B28F
:1010F0004910012D00D15140601CC4B2082CF0DB16
:10110000084670BD2DE9F04F05460F4690469946BA
:1011100044464FF0000A0AE028784A462146FFF785
:10112000DAFF04466D1C0AF1010000F0FF0ABA451F
:10113000F2DB2046E11704EB1161C1F3072BE11745
:1011400004EB11610912A4EB0121CEB20BEB0620D6
:1011500084B22046BDE8F08F10B50246002300207F
:1011600003E0145C6340441CE0B28842F9DBD8B26F
:1011700010BD30B503460C460021002204E09D5C02
:101180000D44A9B2551CEAB2A242F8DBCD43A9B284
:101190004D1CA9B2C8B230BD10B5024600230020D4
:1011A00004E0145C1C44A3B2441CE0B28842F8DBA7
:1011B000D8B210BD2DE9F04306460F4690461C46B6
:1011C000DDF81C90012C07D14B464246394630468B
:1011D000FFF798FF054616E0022C05D13946304648
:1011E000FFF7C7FF05460EE0032C05D13946304610
:1011F000FFF7B2FF054606E0042C04D1394630461D
:10120000FFF7CAFF05462846BDE8F08378B50446D7
:1012100000250095002024E0009D2D010095155C1F
:10122000392D05DC155C303D009E3544009516E0F7
:10123000155C412D08DB155C462D05DC155C373D42
:10124000009E354400950AE0155C612D07DB155CB6
:10125000662D04DC155C573D009E35440095451C09
:10126000E8B21D00A3F10106F3B2D5D1002004E0DD
:101270001DF800502554451CE8B28842F8DB78BDC3
:101280002DE9F04788B081460C4616460025002718
:10129000B24618E0605D392802DC605D30280BDA68
:1012A000605D412802DB605D462805DD605D6128E8
:1012B00007DB605D662804DC605D0DF80700781CC4
:1012C000C7B2681CC5B25FEA0A00AAF1010101F0C9
:1012D000FF0ADFD13E46304606EBD0714910A6EB3F
:1012E000410119B1002008B0BDE8F0874FF00008B7
:1012F0000CE0694601EB480209EB080002230121DA
:10130000FFF784FF08F1010000F0FF0806EBD6713B
:10131000B8EB610FEDDB0120E5E70023137011E06E
:1013200000F00F030B700B780A2B03DB0B783733BD
:101330000B7002E00B7830330B70491C13785B1C88
:10134000137000090028EBD1137823B930230B70F8
:1013500013785B1C137070472DE9F04180460D46F1
:101360001646324629464046FFF7D7FF00240BE0D9
:101370002F5D3078401E001B285C28553078401EB9
:10138000001B2F54601CC4B2307800EBD071B4EB5A
:10139000610FEDDBBDE8F08110B5002313700FE0A5
:1013A0000A23B0FBF3F403FB14030B700B78303308
:1013B0000B70491C13785B1C13700A23B0FBF3F00D
:1013C0000028EDD1137823B930230B7013785B1C00
:1013D000137010BD2DE9F04180460D461646324689
:1013E00029464046FFF7D8FF00240BE02F5D3078F8
:1013F000401E001B285C28553078401E001B2F54CF
:10140000601CC4B2307800EBD071B4EB610FEDDB3F
:10141000BDE8F08178B504460025009500200CE079
:10142000009D05EB85056D0000950546461CF0B254
:10143000555D303D009E354400951D00A3F1010629
:10144000F3B2EDD1002004E01DF800502554451CF6
:10145000E8B28842F8DB78BD0A220A70084A1368AD
:1014600003605368436012890281704770B5044677
:101470000A22214602480BF02BF80546284670BD8B
:10148000001000002DE9F0430B4603F5E143DFF8BF
:10149000F4C1B3FBFCF1B3FBFCF80CFB18344FF4C4
:1014A000616CB4FBFCF58560B4FBFCF80CFB1845E3
:1014B0002C464FF03C0CB4FBFCFCC0F804C04FF0D1
:1014C0003C0CB4FBFCF80CFB184CC0F800C001F15C
:1014D000040C4FF00708BCFBF8F908FB19CCC0F866
:1014E00018C0BCF1000F05DAD0F818C00CF1070CD9
:1014F000C0F818C040F2B27200BF02F0030CBCF199
:10150000000F08D14FF0640CB2FBFCF80CFB182C58
:10151000BCF1000F08D14FF4C87CB2FBFCF80CFB07
:10152000182CBCF1000F02D14FF0010C01E04FF07C
:10153000000C6746DFF850C13CF817C08C4500D955
:1015400007E0521CDFF840C13CF817C0A1EB0C01CA
:10155000D3E700BFA2F26C7CC0F814C0C16107EBF6
:10156000470CDFF8288108EB8C064FF0000CC0F820
:1015700010C00BE0D0F810C016F80CC0A1EB0C01A5
:10158000D0F810C00CF1010CC0F810C0D0F810C099
:1015900016F80CC08C45EDD9D0F810C00CF1010C38
:1015A000C0F810C001F1010CC0F80CC04FF0FF3CB6
:1015B000C0F820C0BDE8F083F0B50146002000234C
:1015C000D1E90045C5EB051504EB85048D68C5EB35
:1015D0004516C6EB052504EB05142044CC68641EB3
:1015E00023440C69641E2A4D35F8144023440D69C8
:1015F000012D20DD4C69E51704EB9575AD10A4EBCA
:10160000850595B964264D6995FBF6F706FB1755D8
:1016100045B94D6905F26C75B60095FBF6F706FB0A
:10162000175515B94FF4B77501E040F26D15B5F5D2
:10163000B77F00D15B1C462218E002F003048CB98E
:101640006424B2FBF4F504FB152444B902F26C7473
:101650004FF4C875B4FBF5F605FB164414B94FF406
:10166000B77401E040F26D142344521C4C6994425B
:10167000E3D840F2A3245C4300EBC410A0F5E140A2
:10168000F0BD00008051010024D700000CD70000FD
:1016900028D7000000207A4981F8400181F84201F2
:1016A00081F8410170477FB5044600BF00F0E2F8C1
:1016B0000546012000F0E1F8714890F8400100284B
:1016C0001EDD6F4890F842016D4901EB0013D3E92C
:1016D0000020D3E9021301AE0BC60092684890F8CF
:1016E0004201401C142190FBF1F201FB12006449FD
:1016F00081F84201084690F84001401E81F84001FF
:10170000284600F0BAF89DE80F0084E80F007FBD7E
:1017100070B500BF00F0AEF80446012000F0ADF84F
:10172000574890F84051204600F0A7F8284670BD71
:10173000F0B589B000BF00F09DF80446012000F02C
:101740009CF8FFF7E5FF0546002D19DD002600BFD8
:1017500013E001A8FFF7A7FF01A80FC805AF0FC747
:101760009DF8230038B1474805A98EC98EC01021C5
:10177000103802F012FA701CC6B2AE42E9DB00BFAC
:10178000204600F07AF809B0F0BD2DE9F05F04467C
:101790000D4616461F46DDE90BABDDF828903848AC
:1017A00090F84001132801D1FFF7C2FF00BF00F0FD
:1017B00061F88046012000F060F8314890F841015E
:1017C0002F4901EB0010007864F3071091F84111E4
:1017D0002B4A02EB01110870104690F841011146A6
:1017E00001EB0010007820F00F0091F8411102EB9E
:1017F00001110870104690F84101114601EB0010EC
:101800004570084690F8410101EB001046800846FB
:1018100090F8410101EB0010C0F804B091F84111BB
:1018200002EB011101F108004A4639460AF0C7FEF1
:10183000134890F84101124901EB001080F80FA005
:10184000084690F84101401C142190FBF1F201FB85
:1018500012000B4981F84101084690F84001401CF4
:1018600081F84001404600F008F80120BDE8F09FF3
:1018700014207047EFF31080704780F31088704792
:10188000BC1400200016002010B5FE4890F80E0190
:1018900004280CDDFB48C07A122808D1F94890F8DA
:1018A0000E01001F81B2F748123002F076F910BD28
:1018B00010B50020F3490870487088724873A1F889
:1018C0001001C8808880087381F80E010881C872F1
:1018D00081F80F0188704FF48071EA480E300AF0E9
:1018E000EDFE10BD10B5FFF7E3FF4120E54908709C
:1018F00088204870E44800788870E3480078401CED
:10190000E14908704FF6FF70DE498880C880DF48E3
:10191000008A0881084690F80E01001D8872012097
:10192000C87208734873D948807C8873D748408A46
:10193000010AD448C1730220D24981F80E010B205C
:1019400081F80F01084690F80E01001D88720120F1
:1019500010BD4120CB49087088204870CA480078E3
:101960008870C9480078401CC74908704FF6FF705E
:10197000C4498880C880C548008A08818420C8720C
:101980000120087348730B2081F80F01084690F876
:101990000E01001D88720120704730B589B0FFF735
:1019A00087FFFFF7B5FE0446002C02DC002009B0DB
:1019B00030BD4120B349087088204870B248007893
:1019C0008870B1480078401CAF4908704FF6FF702E
:1019D000AC498880C880AD48008A0881084690F8E4
:1019E0000E01001D88720A20C87201200873487316
:1019F000002511E001A8FFF756FE01A80FC8CDE9A8
:101A00000723CDE905019F490E31102202FB051085
:101A100005A90AF0D4FD6D1CA542EBDB9A4890F8AD
:101A20002600401CC0B2984981F826002201954941
:101A30000E31885400222001401C0A542001801CD1
:101A40000E3981F80E010B2081F80F01084690F83D
:101A50000E01001D88720120A9E710B5FFF728FFCD
:101A6000412088490870882048708748007888702D
:101A700085480078401C844908704FF6FF70814902
:101A80008880C8808148008A08818B20C872012024
:101A90000873487388737C48017D7A48C1737A481B
:101AA000808A010A7748017477484069010C7548BB
:101AB000417475484069000E72498874052081F8A8
:101AC0000E010B2081F80F01084690F80E01001D51
:101AD000887210BD10B5FFF7EBFE50216948143035
:101AE00002F083FD0446002C01DC002010BD4120E3
:101AF000644908708820487063480078887062489C
:101B00000078401C604908704FF6FF705D4988807E
:101B1000C8805E48008A08810C20C87201200873C2
:101B2000487359488069401C5749886101205549CC
:101B3000887300215348C1735348017E5148017492
:101B40005148008B010A4F4841744F488069010C8D
:101B50004C4881744C488069000E4A49C874A01DE5
:101B600081F80E010B2081F80F01084690F80E0154
:101B7000001D88720120B9E710B50446FFF798FEF2
:101B8000412040490870882048703F48007888709C
:101B90003D480078401C3C4908704FF6FF703949B9
:101BA0008880C8803948008A0881084690F80E016C
:101BB000001D88720320C8720120087348733348DF
:101BC000807C88733148408A010A2E48C1731022F4
:101BD000214610300AF0F3FC2B4890F82600401CF8
:101BE000C0B2294981F82600264981F82000002149
:101BF000244880F821101420224981F80E010B207E
:101C000081F80F01084690F80E01001D887210BD82
:101C100041211C4A1170882151701B49097891702B
:101C200019490978491C184A117028B14FF6FF71FB
:101C3000144A9180D18006E015494988114A918063
:101C400013490988D1801149098A0E4A118111214D
:101C5000D1720121117351730C49897C91730B4925
:101C6000498A0A0A0749CA7301220A744A7403227C
:101C70008A740222CA740A7504498A7D01494A7528
:101C8000024907E010160020001A0020C0190020A9
:101C9000181D0020C98A0A0AFE498A750921FD4AD1
:101CA00082F80E110B2182F80F11114691F80E11D6
:101CB000091D917270472DE9F04188B08046FFF709
:101CC00027FD0546002D03DC002008B0BDE8F081AB
:101CD0004120F049087088204870EF4800788870EB
:101CE000ED480078401CEC4908700846C088E94976
:101CF0008880E9488088C880E848008A08810846CA
:101D000090F80E01001D88721220C872012008731D
:101D10004873E248807C8873E048408A010ADD48C5
:101D2000C17380F81080DC4890F82600401CC0B2D7
:101D3000D94981F82600D7494874ECB2002700261B
:101D40001FE06846FFF7AFFC9DE80F00CDE90623D2
:101D5000CDE904019DF81F0060B1781CC7B27A1E5E
:101D6000CC491231102303FB02101A4604A90AF0D1
:101D700026FC05E0601EC4B2002C01DC0020A4E7B4
:101D8000761CAE42DDDB2001001DC24981F80E0148
:101D90000B2081F80F01084690F80E01001D887293
:101DA000012092E71FB504464120BA4908708820F7
:101DB0004870B94800788870B7480078401CB64928
:101DC00008700846C088B3498880B3488088C880B6
:101DD000B248008A0881084690F80E01001D8872FA
:101DE0001220C872012008734873AC48807C887345
:101DF000AA48408A010AA748C1730474A64890F80B
:101E00002600401CC0B2A44981F82600A1494874AC
:101E10009DF8000020F0F00030308DF800009DF8B3
:101E2000000020F00F008DF80000F0208DF8010078
:101E30009A48008AADF8020005F089FD0190002063
:101E40000290ADF80C008DF80E008DF80F001022F6
:101E50006946904812300AF0B2FB14208D4981F88F
:101E60000E010B2081F80F01084690F80E01001DAD
:101E70008872012004B010BD10B58848C08B0005E1
:101E8000010C8448123001F070FF0446002C01DC84
:101E9000002010BD41207F490870882048707E488E
:101EA000007888707C480078401C7B4908700846A0
:101EB000C0887849888078488088C8807748008AB8
:101EC00008811220C8720120087348737348807C0F
:101ED00088737248408A010A6E48C17300210174F8
:101EE0006D4890F82600401CC0B26B4981F826006E
:101EF00068494874201D81F80E010B2081F80F01FC
:101F0000084690F80E01001D88720120C1E74121AA
:101F1000604A1170882151705F49097891705E495B
:101F20000978491C5C4A11704FF6FF71594A91803B
:101F3000D1805A49098A11810921D1720121117375
:101F400051735649897C91735449498A0A0A514907
:101F5000CA73534991F850204E490A7403214D4ADF
:101F600082F80E1100202EE04D4911F820200321A7
:101F700001EB800347490E31CA54494931F820101A
:101F80000A0A042101EB800342490E31CA54444934
:101F900001EB80018A78052101EB80033D490E3178
:101FA000CA543F4901EB8001CA78062101EB800346
:101FB00038490E31CA540E3991F80E11091D354AAF
:101FC00082F80E11401C364991F850108142CBDC4A
:101FD000304991F80E11091D2E4A91720B2182F899
:101FE0000F11704710B5044601202A49887344B187
:101FF000C81C2CA10A68C2608A880282897981740F
:1020000008E02448C01C29A10A68C2608A880282AC
:102010008979817408201F4981F80E01FFF799FC26
:1020200004F03DFC10BD10B504464FF48A71194808
:102030000AF044FB01201749887354B1C81C1DA144
:102040000A68C260496801610920124981F80E01DD
:102050000AE01048C01C1AA10A68C2604968016100
:1020600009200C4981F80E01FFF773FC04F017FCFE
:1020700010BD10B50748007814490870054840782D
:10208000487004488078887002480079C870014818
:1020900080881DE010160020001A0020C0190020C2
:1020A0004C2200202B5343423A4F4B002B534342C8
:1020B0003A4552002B465352433A4F4B3B000000E7
:1020C0002B465352433A45523B0000003919002039
:1020D000000A08717248807948717148C088000A06
:1020E00088716F48007AC8716D480089000A0872CB
:1020F0006B48807A48726A48C07A88726848007B68
:10210000C8726748407B0873654890F80E2100F15B
:102110000E0164480AF053FA614890F80F1190F8E4
:102120000E010D305F4A0D3A11545D4890F80E01D2
:1021300000F10E0101234FF6FF725A480D38FEF7E9
:1021400072FF04465648A0F8104190F80E010E3078
:10215000544A0D3A1454210A514890F80E010F3098
:1021600011544F4890F80E011030C1B24E48026928
:102170004C480D38904710BD70B505464B48007867
:10218000102800DA70BD49480078801E4749491C74
:10219000085A4749A1F8100144480078801E81B2CE
:1021A00001234FF6FF724148401CFEF73CFF0446F6
:1021B0003F48B0F81001A04200D0E3E73B48407828
:1021C0003B49087039488078487038488088888052
:1021D0003648C088C8803548008908813348807AED
:1021E0008872084680883349498A884205D0304839
:1021F00080884FF6FF71884241D12D48C0882D4913
:10220000098A884205D02A48C0884FF6FF71884263
:1022100035D12648C07A2649C8722448007B087305
:102220002248407B487321480078A0F110021F49E2
:102230000E311F480E300AF0C2F91C4800781038E1
:102240001B4981F80E0119480078C01E1749491C26
:10225000085C174981F80F01084680F812511249AD
:10226000086A8047124981F81301084690F80F0167
:102270000B2804D10022EA210F48FEF762FD00BFBF
:1022800080E710B508480949C268481C90470649CC
:102290008869804704462046FFF76EFF10BD0000A6
:1022A0001016002046190020241D00203818002098
:1022B00024170020C0190020F000002010B50446AB
:1022C0003C2221464FF47C4006F03EFE10BD10B586
:1022D00004463C2221464FF47C4006F09DFD10BD93
:1022E00010B5FE48FFF7F3FFFC480068FC49884240
:1022F00005D0FC48FFF7E2FFF848FFF7E8FFF74892
:10230000008A28B1F548008A4FF6FF7188420DDB3C
:10231000F248F449098A01824068401C08B901204A
:1023200002E0EE484068401CEC494860EB48408AB7
:1023300028B1EA48408A4FF6FF7188420DDBE74832
:10234000E849498A41824068401C08B9012002E0FE
:10235000E2484068401CE1494860E048808A28B172
:10236000DE48808A4FF6FF7188420DDBDB48DD498D
:10237000898A81824068401C08B9012002E0D74860
:102380004068401CD5494860D448C08A20B1D34831
:10239000C08AB0F5E16F0DDBD048D249C98AC1824D
:1023A0004068401C08B9012002E0CC484068401C4D
:1023B000CA494860C948008B0A280DDDC748C94989
:1023C000098B01834068401C08B9012002E0C34822
:1023D0004068401CC1494860C048008C1E2802DC8F
:1023E000BE48008C68B9BD48BE49098C018440686C
:1023F000401C08B9012002E0B8484068401CB749B9
:102400004860B648408B012803DBB448408B642801
:102410000DDDB248B349498B41834068401C08B97F
:10242000012002E0AD484068401CAC494860AB4820
:10243000808B282805DBA948808B40F6B83188427C
:102440000DDDA648A749898B81834068401C08B9E7
:10245000012002E0A1484068401CA04948609F4814
:10246000C08B18B19D48C08B64280DDD9B489D49E9
:10247000C98BC1834068401C08B9012002E097481D
:102480004068401C954948609448408C012803DB13
:102490009248408C10280DDD90489249498C418427
:1024A0004068401C08B9012002E08C484068401C8C
:1024B0008A4948608948808C012805DB8748808CE0
:1024C0004EF6602188420DDD84488649898C8184DE
:1024D0004068401C08B9012002E080484068401C68
:1024E0007E4948607D48C08C002804DD7B48C08C54
:1024F000B0F5167F0DDD79487A49C98CC1844068F2
:10250000401C08B9012002E074484068401C73492F
:1025100048607248008D282805DB7048008D40F621
:10252000B83188420DDD6D486E49098D01854068DE
:10253000401C08B9012002E068484068401C674917
:102540004860664991F82A0000F0D2FB68B96348F8
:102550006449498D41854068401C08B9012002E06A
:102560005E484068401C5D4948605C4991F82C0019
:1025700000F0DCFB68B959485A49898D818540686B
:10258000401C08B9012002E054484068401C5349EF
:102590004860524991F82E0000F0D5FB68B94F48C9
:1025A0005049C98DC1854068401C08B9012002E02E
:1025B0004A484068401C494948604848008E1428F1
:1025C0000DDD46484749098E01864068401C08B920
:1025D000012002E041484068401C404948603F48B3
:1025E000408E41F2EA01884205DB3C48408E41F2D0
:1025F000EC3188420DDD39483A49498E41864068C0
:10260000401C08B9012002E034484068401C3349AE
:1026100048603248808E18B13048808E1E280DDD0B
:102620002E483049898E81864068401C08B90120B7
:1026300002E02A484068401C284948602748C08E6C
:102640004FF6FF71884202D02448C08E68B92348F3
:102650002449C98EC1864068401C08B9012002E0A7
:102660001E484068401C1D4948601C48008F4FF6BA
:10267000FF7188420DD119481A49098F01874068B6
:10268000401C08B9012002E014484068401C13496E
:102690004860124890F83A00012814D00F4890F88A
:1026A0003A0002280FD00D480E4991F83A1080F8F0
:1026B0003A104068401C08B9012002E00748406811
:1026C000401C06494860054890F83B00D8B90348CB
:1026D00090F83B00052816DA004805E0C0190020F4
:1026E0001111051640D70000474991F83B1080F8BA
:1026F0003B104068401C08B9012002E04348406894
:10270000401C424948604148406828B100203F4988
:1027100048600846FFF7D2FD00203D4908700120BF
:1027200048700020887008814881C86008618884EA
:10273000012081F82700002081F8300081F838005E
:1027400034494882C88288824881C8818881088249
:10275000314981F8F00010BD10B52C48FFF7AEFDEF
:1027600010BD10B5294991F82A0000F062FA2749F6
:1027700091F82C0000F081FA244991F82E0000F025
:10278000A0FA10BD002016E0002100EB4002224B11
:1027900003EBC202917100EB400203EBC202918095
:1027A00000EB400203EBC202D17100EB400203EBED
:1027B000C2021172401C184991F8F0108142E3DC0A
:1027C0000021154A82F8F010704700201349087163
:1027D000C87008830021114A116151611146888334
:1027E000C8830870887008728871C8714871487011
:1027F0008876704700200A498871088108804880DF
:102800000871C8714871704740D70000C019002096
:10281000001A0020401A0020601A0020581B0020D7
:10282000181D002010B504462146012000F003FDCC
:1028300010BD01460A2291FBF2F08003704710B5EB
:102840008121012000F0F7FC10BD08B56946012088
:1028500000F0F9FC9DF8000008BD2DE9FE4380461C
:102860000020029001900090FFF7EFFF8146FFF7F4
:10287000E6FF4046FFF7DDFF0446C4F30745C4F317
:102880000726E7B22946062000F0D5FC314607208E
:1028900000F0D1FC3946082000F0CDFC02A906204A
:1028A00000F0D1FC01A9072000F0CDFC694608200A
:1028B00000F0C9FC9DF80800A84202D00020BDE845
:1028C000FE839DF80400B04201D00020F7E79DF898
:1028D0000000B84201D00020F1E74846FFF7A2FF10
:1028E0000120ECE738B5044669461E2000F0ABFC39
:1028F0009DF8000000F0FB00009024F0FB049DF820
:102900000000204300909DF800101E2000F093FC72
:1029100038BD70B504460D46052C01DD012070BDA3
:1029200000F03EFC00F062FC00F050FC00210120B1
:1029300000F081FC8021012000F07DFC812101203C
:1029400000F079FCF64890F8300040F07001092062
:1029500000F071FC012D04D104214D2000F06BFC2E
:1029600003E007214D2000F066FC02210A2000F060
:1029700062FC3B210B2000F05EFC5021222000F085
:102980005AFC0C21262000F056FC0420FFF7AAFF79
:10299000E349488EFFF761FF08B90220BFE7002036
:1029A000BDE710B500F022FC10BD38B504460D4659
:1029B0006946122000F047FC8121012000F03BFC19
:1029C0000021202000F037FC0A21212000F033FCF8
:1029D0002946222000F02FFC00F05BFC80210E2015
:1029E00000F029FC80210D2000F025FC2A4621461C
:1029F000002000F00BFCFF21122000F01CFCF7214E
:102A0000112000F018FC4021084600F014FC83213E
:102A1000012000F010FC38BD1CB5044601A91020AF
:102A200000F011FC8121012000F005FC0021202094
:102A300000F001FC0A21212000F0FDFB21462220AC
:102A400000F0F9FB01A9112000F0FDFBBF211120CE
:102A500000F0F1FB01A9112000F0F5FB002140205E
:102A600000F0E9FB00F015FC00210F2000F0E3FB73
:102A700000210D2000F0DFFB6946122000F0E3FB8F
:102A8000FF21122000F0D7FB8521012000F0D3FBAD
:102A9000FFF7DBFE009006E08521012000F0CBFB74
:102AA000FFF7D3FE00909DF8000000F00500052818
:102AB000F2D11CBD38B505460C462146132000F066
:102AC000C2FB2078802800DD38BD6946102000F068
:102AD000BAFB9DF800100D2000F0ADFB21782846D0
:102AE00000F0C3FBFF21122000F0A5FB00BFEBE7C5
:102AF00070B504460D4600210D2000F09CFB2946D0
:102B0000204600F0B2FBFF21122000F094FB70BDC4
:102B100010B58121012000F08EFB8021012000F002
:102B20008AFB10207F4908607F49C1F8880210BDE8
:102B300070B504460125062C59D2DFE804F058038D
:102B40001425364772211D2000F075FBC4211E207C
:102B500000F071FB0021202000F06DFB0A212120F4
:102B600000F069FB45E082211D2000F064FBB421E8
:102B70001E2000F060FB0021202000F05CFB0A21F9
:102B8000212000F058FB34E088211D2000F053FB89
:102B900084211E2000F04FFB0021202000F04BFB81
:102BA0000A21212000F047FB23E092211D2000F0A4
:102BB00042FB74211E2000F03EFB0021202000F08B
:102BC0003AFB0A21212000F036FB12E092211D2061
:102BD00000F031FB74211E2000F02DFB002120208D
:102BE00000F029FB0A21212000F025FB01E000254F
:102BF00000BF00BF284670BD0EB502A91B2000F023
:102C000022FB01A91A2000F01EFB6946192000F0E2
:102C10001AFB9DF804000EBD08B569461D2000F0A2
:102C200012FB9DF8000020F00F0000909DF80000BE
:102C300008BD38B5044669461D2000F004FB9DF828
:102C4000000000F00F00009024F00F049DF8000039
:102C5000204300909DF800101D2000F0ECFA38BDD4
:102C600008B569461D2000F0EEFA9DF8000020F03E
:102C7000F10000909DF8000008BD38B50446694693
:102C80001D2000F0E0FA9DF8000000F0F100009037
:102C900024F0F1049DF80000204300909DF80010FE
:102CA0001D2000F0C8FA38BD08B569461E2000F0A6
:102CB000CAFA9DF8000020F00F0000909DF8000077
:102CC00008BD38B5044669461E2000F0BCFA9DF8E0
:102CD000000000F00F00009024F00F049DF80000A9
:102CE000204300909DF800101E2000F0A4FA38BD8B
:102CF000014689B110290FD020290DD030290BD0E1
:102D0000402909D0502907D0602905D0702903D067
:102D1000802901D0902901D1012070470020FCE7D3
:102D2000C019002088A2024000A0024001460229EA
:102D300005D0042903D0062901D0082901D101209A
:102D400070470020FCE7014660290BD0702909D0AC
:102D5000802907D0902905D0A02903D0B02901D01F
:102D6000C02901D1012070470020FCE710B50021E7
:102D700021E0EE4A528D8B00ED4C34F813309A422C
:102D800018D1EA4A928D012303EB810334F8133002
:102D90009A420FD1E54AD28D022303EB810334F826
:102DA00013309A4206D1032202EB8102234633F804
:102DB000120002E0491C0429DBDB00BF10BD10B586
:102DC0008121012000F037FA8021402000F033FA01
:102DD0008721012000F02FFAFFF737FD044606E0B7
:102DE0008721012000F027FAFFF72FFD044604F0A9
:102DF00007000728F4D110BD70B505460E461446ED
:102E000005F00F00002859D128110A2856D2DFE812
:102E100000F0050D151D252D353D454D0420207074
:102E20002278C4A1304609F0CAFB48E00520207092
:102E30002278C2A1304609F0C2FB40E00520207094
:102E40002278C0A1304609F0BAFB38E00520207096
:102E50002278BEA1304609F0B2FB30E00520207098
:102E60002278BCA1304609F0AAFB28E0052020709A
:102E70002278BAA1304609F0A2FB20E0052020709C
:102E80002278B8A1304609F09AFB18E003202070A0
:102E90002278B6A1304609F092FB10E003202070A2
:102EA0002278B3A1304609F08AFB08E003202070A5
:102EB0002278B0A1304609F082FB00E000BF00BFDD
:102EC00070BD70B50446FF2504229AA1204609F082
:102ED0002BFB08B9002546E0052298A1204609F001
:102EE00023FB08B910253EE0052296A1204609F0F3
:102EF0001BFB08B9202536E0052294A1204609F0E5
:102F000013FB08B930252EE0052292A1204609F0D6
:102F10000BFB08B9402526E0052290A1204609F0C8
:102F200003FB08B950251EE005228EA1204609F0BA
:102F3000FBFA08B9602516E003228CA1204609F0AF
:102F4000F3FA08B970250EE0032289A1204609F0A2
:102F5000EBFA08B9802506E0032286A1204609F095
:102F6000E3FA00B99025284670BD70B505460E46B7
:102F70001446022D06D0042D0CD0062D12D0082D9B
:102F800020D117E00320207022787BA1304609F081
:102F900016FB18E003202070227878A1304609F053
:102FA0000EFB10E003202070227875A1304609F056
:102FB00006FB08E003202070227872A1304609F059
:102FC000FEFA00E000BF00BF70BD70B50446FF25EB
:102FD000042269A1204609F0A7FA08B9022516E0E3
:102FE000052266A1204609F09FFA08B904250EE0E3
:102FF000052263A1204609F097FA08B9062506E0E4
:10300000052260A1204609F08FFA00B9082528465C
:1030100070BD70B505460E461446902D26D006DCD0
:10302000602D0BD0702D11D0802D3FD116E0A02D3A
:1030300024D0B02D2AD0C02D38D12FE0012020700F
:10304000227847A1304609F0BAFA30E0012020701A
:1030500022784DA1304609F0B2FA28E00120207014
:1030600022784AA1304609F0AAFA20E00120207017
:10307000227847A1304609F0A2FA18E00220207019
:10308000227844A1304609F09AFA10E0022020701C
:10309000227841A1304609F092FA08E0022020701F
:1030A00022783EA1304609F08AFA00E000BF00BF56
:1030B00070BD70B50446FF25042229A1204609F001
:1030C00033FA08B960252EE004222FA1204609F02A
:1030D0002BFA08B9702526E004222CA1204609F01D
:1030E00023FA08B980251EE0042229A1204609F010
:1030F0001BFA08B9902516E0052226A1204609F002
:1031000013FA08B9A0250EE0052223A1204609F0F4
:103110000BFA08B9B02506E0052220A1204609F0E7
:1031200003FA00B9C025284670BD0000C019002070
:103130007CD70000375F38310000000031305F3449
:103140003100000031355F363200000032305F3828
:103150003300000033315F323500000034315F3618
:103160003600000036325F35300000003132350065
:103170003235300035303000345F3500345F360092
:10318000345F3700345F380037000000380000003B
:1031900039000000313000003131000031320000D0
:1031A00000BF20223D4B1A603D4BC3F8A42200BF54
:1031B0003C4A126E91B23B4A106D4EF6FF720A40C5
:1031C000384B1A6640F480521A65704710B505F006
:1031D00029FA10BD012804D12021304A3C3A11605F
:1031E00003E020212D4A403A1160704710B50120BC
:1031F000FFF7F0FF4FF47A70FDF72DFE0020FFF788
:10320000E9FF43F69820FDF726FE10BD70B5044691
:103210000D46164644F080003246294605F04EFA27
:1032200070BD70B504460D46164632462946204606
:1032300005F08CFA70BD13B50446012201A92046A1
:10324000FFF7E4FF1CBD70B504460D460122294678
:103250002046FFF7E6FF70BD70B504460D462A46CE
:1032600021460020FFF7D2FF70BD70B504460D4621
:103270002A4621460020FFF7D4FF70BD20B110215F
:10328000064A403A116003E01021044A403A1160B6
:10329000704710200149403908607047C4A20240BD
:1032A00000A002400080044010B501210420FFF777
:1032B00030FB04460CB1204610BD0020FCE710B5E1
:1032C000FFF76FFB10BD10B56420FFF7A5FB10BD25
:1032D00070B504460D4629462046FFF7EBFB70BD4E
:1032E00070B505460E4600BF00BFEFF310800446E0
:1032F000012080F3108800BF0020284988703146E3
:103300002846FFF752FB204680F3108800BF70BDAF
:1033100010B5FFF7FDFB00BF1020214908602149CF
:10332000C1F8A40200BF1E493C39086010BD70B549
:10333000FFF762FC044620010F2190FBF1F0A43856
:1033400045B2284670BD10B5FFF756FC10BD10B54C
:10335000FFF735FD10BD10B5AFF2B300124908609C
:10336000AFF2A5004860AFF2A1008860AFF29F0005
:10337000C860AFF293000861AFF26B004861AFF232
:1033800051008861AFF23900C861AFF245000862B0
:1033900008688047FFF7E5F910BD0000001A00201B
:1033A000C4A2024000A00240241D002010B5024625
:1033B00000204FF0402100BF4FF47F438B658B15F9
:1033C0004B6500BF00BF4FF0E0638B658B024B6520
:1033D00000BFCB034B620B044B6200BF4B154B622B
:1033E0004FF440438B6200BF04238B654023FE4CA7
:1033F00023600A7000BF0B69C3F3C013002BFAD01F
:1034000000BF0B69C3F30343012BFADB4FF00053FA
:103410004B624023F44C241F236010BD30B502469C
:103420000B4600204FF0402104248C6500BF4C1552
:103430004C624FF440448C6200BF00BF4FF0E06428
:103440008C658C024C6500BFCC034C620C044C6252
:103450004024E54D2C600A7000BF0C69C4F3C01411
:10346000002CFAD000BF0C69C4F30344012CFADB32
:103470004FF000544C6200240C7000BF0C69C4F380
:10348000C014002CFAD000BF0C69C4F30344012C13
:10349000FADB0C781C704024D34D2D1F2C6030BDFE
:1034A000F0B503460C46002000254FF040210426CD
:1034B0008E6500BF4E154E624FF440468E6200BFCF
:1034C00000BF4FF0E0668E658E024E6500BFCE03F2
:1034D0004E620E044E624026C34F3E600B7000BF2A
:1034E0000E69C6F3C016002EFAD000BF0E69C6F3EF
:1034F0000346012EFADB17E04FF000564E6200261D
:103500000E7000BF0E69C6F3C016002EFAD000BFC1
:103510000E69C6F30346012EFADB91F800C02E4671
:103520006F1CBDB204F806C01600A2F10107BAB2C2
:10353000E2D14026AC4F3F1F3E60F0BDF0B50346E0
:103540000C46002000254FF0402104268E6500BF68
:103550004E154E624FF440468E6200BF00BF4FF0E2
:10356000E0668E658E024E6500BFCE034E620E048D
:103570004E6240269C4F3E600B7000BF0E69C6F342
:10358000C016002EFAD000BF0E69C6F30346012E06
:10359000FADB4FF000564E6212E0665D0E7000BF1F
:1035A0000E69C6F3C016002EFAD000BF0E69C6F32E
:1035B0000346012EFADB4FF000564E626E1CB5B288
:1035C0001600A2F10107BAB2E7D14026864F3F1F8D
:1035D0003E60F0BDF0B504460D4600204FF040219E
:1035E00004268E6500BF4E154E624FF440468E6233
:1035F00000BF00BF4FF0E0668E650E034E6500BF52
:103600000E044E624026784F3E6013E04FF00056A5
:103610004E6226680E6000BF0E69C6F3C016002E0B
:10362000FAD000BF0E69C6F30346042EFADB2E1F44
:10363000B5B2241D042DE9DA00BF4FF0E0668E65B7
:103640004FF080764E6500BF11E04FF000564E629D
:1036500026780E6000BF0E69C6F3C016002EFAD0A1
:1036600000BF0E69C6F30346012EFADB641C2E0070
:10367000A5F10107BDB2E8D100BF4FF0E0668E654D
:103680004FF080664E6500BF15E04FF000564E6269
:1036900000260E6000BF0E69C6F3C016002EFAD0D9
:1036A00000BF0E69C6F30346042EFADB0E681660EF
:1036B000121D1E1FB3B2042BE7DA00BF4FF0E06605
:1036C0008E654FF080764E6500BF13E04FF00056D8
:1036D0004E6200260E7000BF0E69C6F3C016002EA3
:1036E000FAD000BF0E69C6F30346012EFADB0E784E
:1036F00002F8016B1E00A3F10107BBB2E6D1402620
:10370000394F3F1F3E60F0BDF0B504460D46002026
:103710004FF0402104268E6500BF4E154E624FF4D7
:1037200040468E6200BF00BF4FF0E0668E650E031C
:103730004E6500BFCE034E620E044E6240262A4FF5
:103740003E6013E04FF000564E6226680E6000BFE8
:103750000E69C6F3C016002EFAD000BF0E69C6F37C
:103760000346042EFADB2E1FB5B2241D042DE9DA20
:1037700000BF4FF0E0668E654FF080764E6500BF6B
:1037800011E04FF000564E6226780E7000BF0E69B1
:10379000C6F3C016002EFAD000BF0E69C6F303466A
:1037A000012EFADB641C2E00A5F10107BDB2E8D1A1
:1037B00000BF4FF0E0668E654FF080664E6500BF3B
:1037C00016E04FF000564E6216680E6000BF0E699C
:1037D000C6F3C016002EFAD000BF0E69C6F303462A
:1037E000042EFADB121D01E088A202401E1FB3B2B4
:1037F000042BE6DA00BF4FF0E0668E654FF080766E
:103800004E6500BF11E04FF000564E6216780E7004
:1038100000BF0E69C6F3C016002EFAD000BF0E69B5
:10382000C6F30346012EFADB521C1E00A3F101076A
:10383000BBB2E8D14026014F3E60F0BD84A20240F9
:1038400070B5002404F005F90646760807E0601C10
:10385000B6FBF0F55348854200D802E0641C102CFA
:10386000F5D300BF204670BD70B54FF04024FFF780
:10387000E7FF0546102600BF40204B4908604B4932
:10388000C1F8A40200BF48494039086002204849F5
:10389000486246F0010048624020444948624006C0
:1038A00048620420A06500BFC00160624FF4404040
:1038B000A06200BF00BF4FF47F40A065002060659C
:1038C00000BF206A20F4700000F5E000206225634C
:1038D0000815A0624000A0628000A062000460623F
:1038E0004000606200BF40F2FF30A06100BF0320D3
:1038F000A0658815606270BD00BF4FF400702B4951
:10390000E43108602949C1F8C40000BF2749A43147
:10391000086000BF4020244908602449C1F8A4027F
:1039200000BF21494039086000BF08201F49E43129
:1039300008601E49C1F8C40000BF00BF10201B4929
:10394000E83108601949C1F8A4001849C431086079
:1039500000BF00BF20201549E43108601349C1F8B9
:10396000C40000BF704710B54FF400700F49A83174
:1039700008604FF47A70FDF76EFA4FF400700B494F
:10398000C1F8A4000C20FDF766FA0120094908706F
:1039900010BD10B5FFF7B0FFFFF766FFFFF7E3FFBD
:1039A00010BD0000404B4C00C4A2024000A00240E9
:1039B00000D00240780000200020FD490880FD4929
:1039C00008804FF48070FC4908807047FA480088EE
:1039D00008B9012070470020FCE7F7480088B0F5DF
:1039E000807F01D1012070470020FCE7F0B502463E
:1039F0000023F14C2488A14206DC0846EE4C2488C2
:103A0000641AED4D2C8005E0EB4C208821880024C1
:103A1000E94D2C8013E01C465D1CABB2155DE54CF6
:103A200026882488641CE34F3C80E44CA5553C4622
:103A30002488B4F5807F02D100243D462C800C0000
:103A4000A1F10105A9B2E6D1F0BDF0B50346002011
:103A50000024D94D2D88C5F58075AAB2914206DCA7
:103A60000846D54D2D880D44D34E358005E01046CF
:103A700011464FF48075D04E358013E0CC4D2E8822
:103A80002D886D1CCA4F3D80CC4DAF5D2546661C10
:103A9000B4B25F55C64D2D88B5F5807F02D10025A3
:103AA000C34E35800D00A1F10106B1B2E6D1F0BDE3
:103AB000F8B500250026002400BFC1480088401C3E
:103AC000C049098890FBF1F201FB1200BC49088053
:103AD000601C84B20846008828B908460088401C4B
:103AE0000880601C84B2B7480088844202D14FF03D
:103AF000FF350CE002236A46D901B148008800F086
:103B000081FCBDF800004FF6FF718842D5D100BF9F
:103B1000681C08B9002601E0A94806883046F8BDAF
:103B200070B504460025FFF7C3FF0646002E19DDD9
:103B3000A5480088401CA4490880A448007884F85F
:103B40000001A2480088001284F801014FF481723C
:103B500021469B48008800F018FC994800889B4942
:103B6000088001E04FF0FF35284670BD10B54FF4D6
:103B700080729249964808F022FD8E480078944958
:103B800081F800018A48007881F801014FF48172C0
:103B90008C48008800F0CEFB10BD70B506460D467F
:103BA00041E0FFF713FFB0B38A48007810B14FF03F
:103BB000FF3070BD88480088B0F5807F08D14FF491
:103BC00080718348FFF741FF8148FFF7A9FF22E09A
:103BD00082480068401C814908604FF481737C4A28
:103BE00000217A48008800F00DFC7B4A1288C2F55B
:103BF000807291B2764A784B1B88D018FFF725FF68
:103C00004FF4817272497148008800F093FB4FF4C1
:103C100080707149088029463046FFF7E7FE044668
:103C20002644281B85B2002DBBD16B48008866490D
:103C3000098800EB012060490988401A684908603A
:103C400008460068000967490860604800886649BE
:103C5000C88057480088088056480088488000205F
:103C6000A7E738B500BF4FF480705B49088000209B
:103C700056490880524908805349088058490860CD
:103C8000584908604A4908804A4908804FF48070C2
:103C90004949088000204F4908704C480088534922
:103CA0000880FFF729FEFFF7DFFDFFF75CFE00BF8E
:103CB000EFF310800446012080F3108800BF002538
:103CC00004E0284600F0DBFA681C85B23D48008815
:103CD0008542F6DB002510E002236A46D90128461A
:103CE00000F090FBBDF800004FF6FF71884202D053
:103CF000284600F0C4FA681C85B232480088854224
:103D0000EADB00BF84F3108800BF012038BD014604
:103D10000C2928D2DFE801F02706090C0F1215182C
:103D20001B1E2124224A10881DE0224A10881AE016
:103D3000214A108817E0254A108814E0204A10888C
:103D400011E02A4A10880EE0234A10880BE01E4A30
:103D5000108808E0224A106805E0224A106802E054
:103D60001C4A107800BF00BF7047F8B506460C46E5
:103D7000002518480078B0B90120164908700C4891
:103D800000881B4908800B48008848800A48008842
:103D900048810E480088C8800F48008888800B48FA
:103DA0000088124908802146304608F087FC6EE002
:103DB000480000204A0000205E000020481D00202E
:103DC0004E0000205C000020500000205800002021
:103DD000481E0020520000204C0000206C000020F3
:103DE0006000002064000020561F00205A000020C0
:103DF0004A1F0020FFF7F1FD00283FD0C24800888D
:103E0000002839DDC1480088844212DABF480088A2
:103E1000001B81B223463246BB48008800F0F2FA0C
:103E2000BA480088001BB9490880281985B20024C7
:103E30002DE0B648038832460021B348008800F0E0
:103E4000E1FAB24800880644B0480088201A84B2DB
:103E5000AE480088284485B24FF48070AB49088092
:103E600002236A460146A848008800F0CBFABDF854
:103E70000000A54908800AE000250AE021463046F6
:103E8000FFF7E3FD284485B22E44601B84B2002C6A
:103E9000B0D100BF15B900209D4908702846F8BD73
:103EA0009B480078B0B10020994908709948008873
:103EB00099490880974840889849088095484089E2
:103EC000974908809348C0888F4908809148808826
:103ED0008E4908800020704708B58D48007800287A
:103EE0003DD000208A49087013E08E480088401EAB
:103EF0008C49088002236A46D9018B48008800F06B
:103F000081FA8948008800F0BAF9BDF800008649B6
:103F100008807D480088844909888842E5D17B482B
:103F200000888049098800EB01207D490988401AF2
:103F30007E4908600846006800097D4908607648A7
:103F400000887C490880754800884880744800884B
:103F500048816D480088C8806C48008888800020AF
:103F600008BD2DE9B04E87B00024002004900390D6
:103F70008346824600250027019081464FF48070D9
:103F80006C49888061490880012421E0022302AA4B
:103F9000D901204600F036FA0198401C80B2019009
:103FA000BDF808004FF6FF7188420ED0A144BDF85D
:103FB0000800A9EB00092D19BDF808003F18594861
:103FC000008800F101005749088004F1010084B223
:103FD000594800888442D9DB4B49A1F800905749E1
:103FE000A1F800904F480088000250490860084638
:103FF000006800094E490860002420E0022306AA58
:10400000D901204600F0FEF9BDF818004A49098898
:10401000884208DDBDF818004FF6FF71884202D0D3
:10402000012004900FE0BDF818004FF6FF718842A0
:1040300003D00BF101001FFA80FB601C84B23E48E4
:1040400000888442DADB00BF2F48008806901AE01F
:10405000022305AAD901BDF8180000F0D3F90AF12E
:1040600001001FFA80FABDF814003349098888421C
:1040700003DC31480088824502DD0120039006E020
:10408000BDF814000690BDF818000028E0D100BF6C
:10409000D34503D1049808B9039880B104F0BEFC5D
:1040A0000020194908801F490880244908801F49B9
:1040B00008601F49086000F01DF904F0BCFC07B05F
:1040C000BDE8B08E00B5FFF777FC00200E490880F0
:1040D0001449088019490880144908601449086087
:1040E00000BD10B5FFF768FC04F0B2FC00F0C0F9A9
:1040F00000F0F8F96420FCF7AEFEFFF732FF04F0A1
:10410000B3FC002010BD0000580000204C0000202F
:10411000520000204A1F0020480000204A000020D2
:104120005E000020500000205A00002060000020A7
:1041300064000020561F00205C0000204E0000207C
:1041400008B502226946D720FFF7AAF9BDF800009A
:1041500008BD10B5F648007828B10020F449087071
:104160007920FFF723F9002010BD70B50025FFF777
:10417000E7FF0446EF490C7004F03C001C280ED009
:1041800004F03C0024280AD0EB48007800B100E09D
:104190000125EA480068401CE849086005E004F091
:1041A000800008B1012500E00025284670BD10B54B
:1041B000DF48007828B90120DD490870AB20FFF7FF
:1041C000F5F8002010BD08B5FFF7F1FF00BFFFF7BD
:1041D000CCFF0028FBD0042269469F20FFF760F93E
:1041E00000BFFFF7C2FF0028FBD0FFF7B2FF009827
:1041F00008BD10B5FFF7DBFFFFF7A2FF0446FFF78E
:10420000A8FF204610BD10B5FFF7D1FF00BFFFF794
:10421000ACFF0028FBD0FFF79CFF002010BD38B595
:1042200004462A208DF8000080208DF8010014B18A
:10423000012C08D103E0A6208DF8020003E0A7209E
:104240008DF8020000BF00BFFFF7B1FF00BFFFF70E
:104250008CFF0028FBD0FFF773FFC5B205F03C00D0
:10426000242809D1032269463D20FFF767F900BFE2
:10427000FFF77BFF0028FBD0FFF76BFF38BD38B599
:104280000446C4F3C7108DF800006006000E8DF8D8
:10429000010000208DF80200FFF789FF00BFFFF743
:1042A00064FF0028FBD0032269468120FFF746F90E
:1042B00000BFFFF75AFF0028FBD0FFF74AFF00209E
:1042C00038BD38B5C72494208DF8000080208DF8C3
:1042D00001009A208DF80200FFF769FF00BFFFF789
:1042E00044FF0028FBD0032269462046FFF726F949
:1042F000002038BD38B5C72494208DF800008020F8
:104300008DF801009A208DF80200FFF750FF00BFE2
:10431000FFF72BFF0028FBD0032269462046FFF75A
:104320000DF900BFFFF721FF0028FBD0FFF711FFB9
:10433000002038BDF8B504460D461646FFF737FF96
:1043400000BFFFF712FF0028FBD082208DF800008D
:10435000C4F3C7108DF801006006000E8DF802004E
:1043600000208DF8030033462A4604216846FFF7F3
:10437000CBF91E20FCF76FFD00BFFFF7F6FE00280B
:10438000FBD0FFF7E6FE0020F8BDF8B504460D4669
:104390001646FFF70CFF00BFFFF7E7FE0028FBD033
:1043A00084208DF8000000208DF801008DF80200B7
:1043B0008DF8030033462A4604216846FFF7A4F926
:1043C00000BFFFF7D2FE0028FBD088208DF8000048
:1043D000C4F3C7108DF801006006000E8DF80200CE
:1043E00000208DF8030033462A4604216846FFF773
:1043F0008BF900BFFFF7B9FE0028FBD0FFF7A9FE3D
:104400000020F8BD2DE9FC4104460D4616461F4626
:10441000FFF7CDFE00BFFFF7A8FE0028FBD0D2209B
:104420008DF80000C4F3C7108DF80100600040EA69
:104430002520C0B28DF80200E8B28DF803000020FC
:104440008DF804008DF805008DF806008DF8070042
:104450003B46324608216846FFF7BCF800BFFFF72D
:1044600084FE0028FBD0FFF774FE0020BDE8FC812D
:1044700070B5FFF741FAFFF7F7F9FFF774FAFFF7A6
:1044800096FEFFF7A0FE0546C5F3072404F00700DB
:1044900004280DD140022A4908804FF4E0602949E0
:1044A000088029490880084600882849088014E0C7
:1044B00004F0070005280ED14FF4805020490880F1
:1044C0004FF470601F4908801F4908800846008823
:1044D0001E49088001E0002070BD0120FFF79FFE0B
:1044E0000120F9E770B5FFF707FAFFF7BDF9FFF70D
:1044F0003AFAFFF768FE0546C5F3072404F0070003
:10450000042803D101200C4908700AE004F00700D8
:10451000052803D101200849087002E0002006495F
:104520000870FFF744FEFFF714FE002070BD000086
:10453000780000207E00002079000020800000200C
:104540007A0000205C00002054000020560000206B
:1045500053480088534908805348008853490880CD
:1045600053480088534908805348008853490880BD
:1045700070474C480088B0F5807F01D1012070471A
:104580000020FCE7F0B5034600200024454D2D88AF
:10459000C5F58075AAB2914206DC0846414D2D88CA
:1045A0000D44404E358005E0104611464FF48075AD
:1045B0003C4E358013E03D4D2E882D886D1C3B4FC1
:1045C0003D803F4DAF5D2546661CB4B25F55374D0B
:1045D0002D88B5F5807F02D10025344E35800D0041
:1045E000A1F10106B1B2E6D1F0BDF8B506460C4620
:1045F00000252146304608F061F84BE0FFF7B9FF8F
:1046000000283ED02B480088002839DD2B48008840
:10461000844212DA29480088001B81B223463246C0
:1046200024480088FFF7EEFE24480088001B234939
:104630000880281985B200242CE0204803883246DF
:1046400000211C480088FFF7DDFE1C480088064456
:104650001A480088201A84B218480088284485B275
:104660004FF480701549088002236A4601461148BC
:104670000088FFF7C7FEBDF800000E49088009E07A
:104680000AE021463046FFF77DFF284485B22E44DC
:10469000601B84B2002CB1D100BF2846F8BD0000D9
:1046A0005E00002088000020480000208A000020D2
:1046B000580000208C0000204C0000208E000020BC
:1046C000481D002010B580219E4807F0F7FF10BD5F
:1046D00010B500209C490880FFF7F4FF10BDF0B52D
:1046E0000446170202F1010C4FEA0C26B7FBF3FC5B
:1046F0001FFA8CF505F1010C1FFA8CF5B6FBF3FCE3
:104700001FFA8CF000FB03FCB44503D200F1010C4E
:104710001FFA8CF025800880F0BD2DE9F74F84B09A
:10472000804614460598401E00FB04F9C9F30F2586
:1047300009F0FF074FF0000A019469E03819B0F55D
:10474000807F04DC26463446301B84B204E0C7F583
:10475000807086B2A01B84B27C490988294488B243
:104760004FF480737A4A0021FFF74CFE08EB0A01F0
:10477000774AD019324607F022FF2A4602A903A839
:10478000019BFFF7ACFF11E06E48BDF80C1000EB89
:10479000E100007801F00701084100F0010000B9D4
:1047A0000AE0BDF80C00401C80B20390BDF80C007C
:1047B000BDF808108842E7DD00BFBDF80C00BDF869
:1047C0000810884214DD01234FF6FF721902604879
:1047D000FCF729FC83465E48A0F800B15B490988D4
:1047E000294488B24FF481725949FFF7A3FD08E0CC
:1047F00056490988294488B24FF480725449FFF71A
:1048000099FD681C85B200270AEB06001FFA80FAA2
:10481000002C93D1002007B0BDE8F08F2DE9F041C6
:104820004C48878AFDB23C0A55B34848008820446A
:104830004949088045490988214488B24FF480736A
:10484000434A0021FFF7DEFDC5F58071404A50194B
:10485000FF2207F02BFF01234FF6FF7219023C489D
:10486000FCF7E1FB06463A48A0F8006137490988A1
:10487000214488B24FF481723549FFF75BFD05E0B2
:10488000324800882044401E33490880BDE8F0814A
:1048900010B5FFF717FF10BD2DE9F04100252D4899
:1048A000848A4FF6FF762948078816E0FF2C02D944
:1048B0004FF4807500E0254638467A1C97B24FF4D5
:1048C0008073264A0021FFF79DFDA9B200233246DE
:1048D0002248FCF7A8FB0646641B002CE6D1012306
:1048E000324600210846FCF79EFB06463046BDE8EE
:1048F000F08110B5FFF792FFFFF7CEFF184908804F
:104900001448C0890988884218D110480088154980
:10491000886011480088C8600846FDF7CFFC03F0A6
:10492000A1FF012080F3108800BFFCF755FB4FF07A
:104930000050FCF75CFBFBF76FFC01E0FFF7A8FF02
:1049400010BD0000621F00209A00002054000020CB
:10495000481E0020401A002098000020E21F00207E
:104960009C000020C01900200220454948701820F2
:1049700008700120087188700320C87070470146D4
:10498000C1F347103F4A107010460078704710B5C9
:104990003B4804F09FF93A498868FFF7F0FF10BDE3
:1049A00010B5012038494863C002486200BF4FF487
:1049B0007060364988610020486100BF0846006B7E
:1049C00020F07C007C3008630846006B20F4F8403F
:1049D00000F5F84008630846006B20F4F80000F585
:1049E000F80008630846006B20F0F84000F1F8403A
:1049F00008630846006A20F07C007C3008620846A4
:104A0000006A20F4F84000F5F84008620846006AA1
:104A100020F4F80000F5F80008620846006A20F06B
:104A2000F84000F1F840086200BFC02088604020D4
:104A3000486000BF4002486000BF154888604FF4DE
:104A40004030486000BF00BF80038861480448616F
:104A500000BF00210D4805F009FC4FF480500B49C0
:104A600088600120886500221146084805F0DEF9BB
:104A70004FF48030054948614000486110BD000096
:104A8000E42000209E00002000D0024000A0014051
:104A90000000FF0710B504F08DFA10BD10B504F04A
:104AA000A4FA10BD8020ED49486370478020EB498F
:104AB0008863704710B50220E949087006204872E3
:104AC0000020486001200872042088720120C8720A
:104AD0000320087301208873C8730874084604F023
:104AE000BAFA10BD10B54FF0FF347821DD4807F059
:104AF00007FE0020DC49087004F098FA0921DB4821
:104B000004F0AEFE04F091FE204610BD30B5034621
:104B10000C460021002200BF04E0985C0844C1B2AA
:104B2000501CC2B2A242F8DB0846CD1701EB9565D6
:104B3000AD11A1EB85152035E9B2985C884201D111
:104B4000012030BD0020FCE710B50446C6480078BF
:104B500028B97B2C03D00020C349087010BD04B9CC
:104B6000FCE7C14800786E2807DABF480178007872
:104B7000401CBD4A1070BB4844540D2C15D1672110
:104B8000B848FFF7C3FF68B104F050FA8020B3497A
:104B900088634000B64948660022F121B548FCF719
:104BA000D0F802E00020B049087000BFD6E7F0B5A9
:104BB0000446059D0020002616701E702E7000BF52
:104BC00025E0265C2D2E02D101262E701CE0265CED
:104BD0002B2E02D100262E7016E0265C202E00D14E
:104BE00013E0265C302E0BDB265C392E08DC265CBD
:104BF000177807EB870706EB4706303E167003E091
:104C0000265C2E2E00D104E000BF461CF0B2884284
:104C1000D7DB00BF4E1E864200DCF0BD14E0265CF0
:104C2000202E00D10EE0265C302E0ADB265C392EC9
:104C300007DC265C1F7807EB870706EB4706303E4C
:104C40001E7000BF461CF0B28842E8DB00BFE4E7FC
:104C50002DE9F04F89B081464FF0000B00200790FE
:104C600006900590002425E019F8040025281FD19E
:104C7000162C1DDA601E19F800003B2818D1E01F21
:104C8000C0B207904FF0000A0CE00798411CC9B26F
:104C9000079119F80000784901F80A000AF10100AB
:104CA00000F0FF0ABAF1060FEFDB0120059003E0E8
:104CB000601CC4B2682CD7DB00BF24E019F80400E4
:104CC00043281ED1601E19F80000B02819D1A4F1A4
:104CD000080000F0FF0B4FF0000A0CE05846411CA2
:104CE00001F0FF0B19F80000644901F80A000AF10D
:104CF000010000F0FF0ABAF1060FEFDB0120069079
:104D000003E0601CC4B2682CD8DB00BF059828B350
:104D10000020059004A85A4B5A4A06210090564894
:104D2000FFF745FF5648007808F054F80746002280
:104D3000554B07F083FE05460E465248007808F0B2
:104D400049F82A463346CDE9000107F0C3FDCDE915
:104D5000020107F08DFD4D49086000BF069878B349
:104D6000002006904A484B4B4B4A0621009043488E
:104D7000FFF71DFF4748007808F02CF80546002291
:104D8000414B07F05BFE074688464348007808F031
:104D900021F83A464346CDE9000107F09BFDCDE9F5
:104DA000020107F065FD3D49086039480078012897
:104DB00006D1084601683A4808F018FB37490860F0
:104DC00009B0BDE8F08F2DE9F04104463348006892
:104DD000344941F824002D480068334941F8240043
:104DE000254636E06A1E2F4B53F822101A4652F819
:104DF000240008F0C7FB804608F06AFA21F0004161
:104E000006460022294B08F03FF820D26A1E264BA6
:104E100053F822101A4652F8240008F0B3FB8046DB
:104E200008F056FA21F0004106460022204B08F017
:104E30002BF80CD21B4850F824001A4908601A4875
:104E400050F82400184908600120BDE8F081681E70
:104E5000C5B2002DC6DC0020F7E70000008004404A
:104E600068210020F0200020B4000020A0000020D5
:104E70000010004070010020BB000020B5000020A1
:104E8000C5000020C400002000005940B0000020F0
:104E9000C1000020C3000020C2000020AC000020A0
:104EA000000080BF7C2100208C21002000001440E5
:104EB00000002E402DE9F04104460D46164601271C
:104EC000208820B1182808D01D287DD119E079E06C
:104ED00000BF00271820208000BF0FB1B02D02D0E6
:104EE0000120BDE8F08100BF03F01AF900BF41F6D0
:104EF00002313848FBF73EFD00BF00271D2020800F
:104F000000BF27B1882D02D13248864201D001204E
:104F1000E7E700BF30480078401C2F49087008467A
:104F200000780A2807D100202C4908700022B221FD
:104F30001046FBF706FF03F0D4F90028D7D1254827
:104F4000FBF781FD264890F8270048BB22480078EF
:104F50001E2809DB0320224981F827000022A32113
:104F60001046FBF7EEFE28E01B480078142809DB0A
:104F700002201B4981F827000022A2211046FBF7DE
:104F8000E0FE1AE0144800780A2816DB01201449D4
:104F900081F827000022A1211046FBF7D2FE0CE089
:104FA0000D4800780A2808DB00200D4981F8270009
:104FB0000022A0211046FBF7C4FE0020064908701D
:104FC00003F086F884E7FFE7002700202080032015
:104FD00087E700009C210020C8000020301300203B
:104FE000001A00202DE9F04105460C46164601271F
:104FF000288810B11E2872D107E003F05BFD5CE148
:1050000000BF00271E20288000BF17B90120BDE87F
:10501000F08100BFAE4890F8270000286FD1A02C87
:1050200007D103F0B7FC0020AA490870AA48FBF793
:105030000AFDB22C04D140F62231A748FBF79AFCB6
:10504000882CDCD1A4488642D9D1A4480078401CE1
:10505000A249087008460078642801DB46200870E1
:1050600003F098FC9C48FBF799FC9D4800881E289B
:105070001ADB9A49087800EBD0714910A0EB410186
:1050800021B903F0E5FC03F0FBFC16E19349087835
:1050900000EBD0714910A0EB41010129AFD103F021
:1050A000E3FC03F0FAFC08E18D480088142817DBC4
:1050B0008A49087800EBD0714910A0EB410111B981
:1050C00003F0ACFCF9E08549087800EBD071491099
:1050D000A0EB4101012992D103F0ADFCEDE0EDE040
:1050E0007F4800880A2817DB7C49087800EBD071DC
:1050F0004910A0EB410119B903F0AAFCDDE00FE073
:105100007649087800EBD0714910A0EB41010129E4
:10511000BBD103F0A9FCD0E06F48FBF794FCCCE0D6
:105120006B4890F827000028AFD0B22C0DD103F0C7
:1051300031FC40F6CC416848FBF71CFC0120654976
:105140000870002065490870B7E0A12C0AD103F06F
:1051500021FC00206149087040F266615E48FBF75F
:1051600009FCAAE0A22C0AD103F014FC00205B4940
:10517000087043F233315848FBF7FCFB9DE0A32C49
:1051800008D103F007FC0020544908705248FBF78F
:105190005AFC92E0882C18D14F48864215D14D48D0
:1051A000007801281ED14D480078401C4B490870FA
:1051B0004948FBF7F3FB4949087800EBD0714910E7
:1051C000A0EB410111B903F05BFC76E0434908789C
:1051D00000EBD0714910A0EB410101296DD103F022
:1051E0005CFC6AE03A4890F82700012834D103F0CB
:1051F000D1FB3A480078401C3849087008460078CE
:10520000042803DB3448FBF71EFC56E03248FBF76A
:10521000C5FB32480078032190FBF1F201FB12003C
:10522000012802D103F0FAFB47E02C480078032163
:1052300090FBF1F201FB1200022802D103F008FCFE
:105240003BE026480078032190FBF1F201FB1200BD
:1052500040BB03F015FC30E01D4890F82700022801
:105260002BD103F097FB1D480078401C1B490870A8
:105270001948FBF793FB19480078032190FBF1F2E2
:1052800001FB1200012802D103F0C8FB15E013480E
:105290000078032190FBF1F201FB1200022802D1F9
:1052A00003F0D6FB09E00D480078032190FBF1F2F2
:1052B00001FB120008B903F0E3FBA1E60027002080
:1052C00028800320A3E610B50348FBF7BCFB10BD04
:1052D000001A0020DD000020AC210020DC000020AE
:1052E000C8000020812807D1FE4991F85010491CC0
:1052F000FC4A82F8501021E089281FD1FA49098917
:10530000F84A92F85020F74B23F82210F64991F80A
:1053100013111A4692F8502003EB82029170F24961
:10532000097C1A4692F8502003EB8202D17019468C
:1053300091F85010491C1A4682F8501070472DE918
:10534000F84F044603F006FC042C5AD1E648807B53
:105350004FEA101BE448807B00F00F07E24890F80A
:105360000E01401EC0B20090BBF1000F48D13A467A
:10537000DD480F30009905F03DFD804607F00F0035
:10538000DA498873012081F80E014FF000094FF0CF
:10539000000A002600252CE005EBC50000EB4000CC
:1053A00008EB400000F1210A05EBC50000EB4000CE
:1053B00008EB400090F83560CC490F3101EB090053
:1053C0003246514607F0FBF8C84890F80E013044C9
:1053D000C64981F80E0109EB060000F0FF0905EB54
:1053E000C50101EB410108EB410005F0CAFD681C55
:1053F000C5B2BD42D0DBFCF7ACFA01F050FA00BFF9
:10540000C1E0052CFCD00B2C35D1B748B0F80F50BB
:10541000B748058405F0010018BBFFF799F8002094
:10542000B3498861B34800684861B2480068052103
:10543000B0FBF1F201FB120030B9AE480068B0FBDE
:10544000F1F0AB49C86107E0AA4800680521B0FB4C
:10545000F1F0401CA649C861FCF7FFFA01F01FFA01
:1054600008E005F00500052804D10022E521A24846
:10547000FBF767FC87E08C2C2CD19B48D0F80E60A2
:105480009B488069B04217D1994880699849C96999
:1054900088421CD00020964988849348458A084653
:1054A000458405F0010028B90022E5219248FBF768
:1054B00048FC00E000BF0AE08D48808C401C8C490D
:1054C00088840846808C032801DA01F0E8F901F0AD
:1054D0003CF958E00D2C16D1884883490E310A68F2
:1054E00002604A684260098901817F48008B8349D4
:1054F00048817D48408B88817B48808BC8817A4871
:10550000C08B08823FE00E2C3DD17C48007C00F02F
:105510000100C0B37448C589794800EBE500007804
:1055200005F00701084100F0010058BB744800EB8A
:10553000E500007805F00702012191400843704919
:1055400001EBE5010870684890F80E01801E6B4978
:10555000C8820846808AC98A084468498882084601
:10556000408A401C48820846828929465E4810309D
:10557000FFF7D3F8614840896049498A884201D1E0
:10558000FFF7B7F900BFBDE8F88F2DE9F05F0646D9
:105590000F465C49B6EB010A67F5A57B5A48C08AFD
:1055A0004FF47A71A0FB01804246034650465946AB
:1055B00006F0C0FD14461D464FF47A710020091B09
:1055C000A8411DD25048C08A4FF47A714843C11790
:1055D000041B61EB05050020D4F16401A8410FD242
:1055E0004948C08A4FF4FA614843C117201A75EB45
:1055F000010005D200F0B6FD2146DA2000F074FC6F
:10560000BDE8F09F2DE9F04705460E46144602F02E
:1056100024F93749496B401A4FEA50192A1946F1C3
:10562000000012EB090740F100083846414602F03D
:105630005FF938464146FFF7A8FFBDE8F0872DE93E
:10564000FF5F0446102C4CD127480589817BC07B25
:1056500001EB002086B22D480088A84240D12B489B
:105660004088B0423CD101F0D0FD0021CB2001F0B8
:105670000DF91D48077C90F81180807C03901A4832
:10568000C07C029007F0070908F0010AB9F1020F87
:1056900023D1BAF1000F20D00021009101911248CE
:1056A00041690091008BADF80400DDE9001080B283
:1056B000CDE900100C48B0F81AB00022DDE9001066
:1056C00051405040014307D01048A0F808B03022A4
:1056D000DDE90001FFF796FF00BF03F03BFA00BFD2
:1056E00000BF15E04C2200202417002010160020D7
:1056F000001A00206400002020010020401A002031
:10570000621F0020003C13A1C0190020181D0020BA
:10571000BDE8FF9F2DE9F0470546922D69D1F84875
:10572000867BC47BC4F340174FEAD418C4F3400906
:10573000C07A922801D0BDE8F087F24890F82600A0
:10574000B0424AD10120EF49887001F054FD002099
:10575000EC49C860488157B3FEF7BEFBB9F1010FB1
:1057600006D1E948407918B9E848408BE5490881F5
:10577000E4480069401CE349086108460069E349C0
:10578000098C884209D2E2480079012805D100221B
:10579000CC21E048FBF7D5FA06E00420D94948704F
:1057A0000021C82001F072F803F0D4F920E0FEF7E0
:1057B00077FBB8F1000F03D00420D249487005E010
:1057C0000120D04948700020CF4908710021C8202D
:1057D00001F05CF803F0A0F90AE0FEF761FB03F0CA
:1057E0009BF90420C74948700021C82001F04EF8F9
:1057F00001E003F091F900BF9DE72DE9F042054675
:105800000E46144602F029F8BE49496B401A4FEA89
:105810005019281BB0EB090739464FF0DD0001F0A5
:1058200035F8BDE8F0822DE9FC470546922D75D18B
:10583000B34890F80E80C47BC4F34019C4F340060B
:10584000C4F380174FEAD41AC07A922801D0BDE879
:10585000FC87AC4890F8260040456DD10120A9494D
:10586000887001F0C8FC0020A649C8604881B9F1E1
:10587000000F4AD07EB177B1002100910191A0487C
:1058800001690091808AADF804002A22DDE9000157
:10589000FFF7B8FE08E0012E06D19B48407918B901
:1058A0009A48408B974908819948007902281DD170
:1058B0009748807A012819D1002100910191002098
:1058C0009349887207EB4700022101EB40018C48A5
:1058D0000E3008440188ADF8001080788DF8020081
:1058E0002A22DDE90001FFF788FF00BFFBF710FF68
:1058F00020B10021CA2000F0C9FF03E00021C92027
:1059000000F0C4FF03F026F91EE0FBF7BDFFBAF17B
:10591000000F04D004207B49487006E015E0012008
:10592000784948700020784908710021C82000F0AB
:10593000ADFF03F0F1F807E0FBF7A6FF03F0ECF88A
:105940000021C82000F0A2FF00BF00BF7FE72DE9C3
:10595000F0470646912E67D101F04DFC6848047C63
:1059600090F81190857CC07A912807D00021DC2026
:1059700000F0BAFA03F0D0F8BDE8F08704F00700B1
:1059800061490870C4F3C0004870C4F30210887005
:1059900005F001000871C5F340004871C5F38000AF
:1059A0008871C5F3C000C871C5F30010087254486F
:1059B000C01DC2680A61008A88825148B0F8190087
:1059C0000883534880F8069004F007005049087196
:1059D000C4F3C00048714A48B0F8190008814A4829
:1059E0000079D0B1084600884649888048484088F8
:1059F000C8804548407930B143483022D0E904712D
:105A00003846FFF7FFFD04203E4948700021C820BA
:105A100000F03CFF03F09EF805E00021DC2000F0E0
:105A200063FA03F079F800BF00BFA5E72DE9F04164
:105A30000446102C61D1384890F8F0000A2801DBA8
:105A4000BDE8F0812E48817BC07B01EB002085B250
:105A50002B48067C877C90F81380C07A102800D0F1
:105A6000EEE7274800892C4991F8F01001EB41013D
:105A7000294A22F83100104690F8F00000EB40006F
:105A8000114601EBC0004580084690F8F00000EB9D
:105A9000400001EBC0008680084690F8F00000EB63
:105AA000400001EBC0008771084690F8F00000EB61
:105AB000400001EBC00080F80780114890F8120107
:105AC00091F8F01001EB410102EBC101087201F005
:105AD00031FF114A92F8F02002EB42020E4B03EB29
